{
  "contractName": "NIKVerificationOracle",
  "abi": [
    {
      "inputs": [],
      "stateMutability": "nonpayable",
      "type": "constructor"
    },
    {
      "anonymous": false,
      "inputs": [
        {
          "indexed": true,
          "internalType": "address",
          "name": "node",
          "type": "address"
        }
      ],
      "name": "NodeAuthorized",
      "type": "event"
    },
    {
      "anonymous": false,
      "inputs": [
        {
          "indexed": true,
          "internalType": "address",
          "name": "node",
          "type": "address"
        }
      ],
      "name": "NodeDeauthorized",
      "type": "event"
    },
    {
      "anonymous": false,
      "inputs": [
        {
          "indexed": true,
          "internalType": "bytes32",
          "name": "requestId",
          "type": "bytes32"
        },
        {
          "indexed": false,
          "internalType": "bool",
          "name": "isValid",
          "type": "bool"
        }
      ],
      "name": "VerificationCompleted",
      "type": "event"
    },
    {
      "anonymous": false,
      "inputs": [
        {
          "indexed": true,
          "internalType": "bytes32",
          "name": "requestId",
          "type": "bytes32"
        },
        {
          "indexed": true,
          "internalType": "address",
          "name": "requester",
          "type": "address"
        },
        {
          "indexed": false,
          "internalType": "uint256",
          "name": "timestamp",
          "type": "uint256"
        }
      ],
      "name": "VerificationRequested",
      "type": "event"
    },
    {
      "inputs": [
        {
          "internalType": "address",
          "name": "",
          "type": "address"
        }
      ],
      "name": "authorizedNodes",
      "outputs": [
        {
          "internalType": "bool",
          "name": "",
          "type": "bool"
        }
      ],
      "stateMutability": "view",
      "type": "function"
    },
    {
      "inputs": [],
      "name": "owner",
      "outputs": [
        {
          "internalType": "address",
          "name": "",
          "type": "address"
        }
      ],
      "stateMutability": "view",
      "type": "function"
    },
    {
      "inputs": [
        {
          "internalType": "bytes32",
          "name": "",
          "type": "bytes32"
        }
      ],
      "name": "verificationRequests",
      "outputs": [
        {
          "internalType": "address",
          "name": "requester",
          "type": "address"
        },
        {
          "internalType": "string",
          "name": "nik",
          "type": "string"
        },
        {
          "internalType": "string",
          "name": "nama",
          "type": "string"
        },
        {
          "internalType": "bool",
          "name": "processed",
          "type": "bool"
        },
        {
          "internalType": "bool",
          "name": "isValid",
          "type": "bool"
        },
        {
          "internalType": "uint256",
          "name": "timestamp",
          "type": "uint256"
        }
      ],
      "stateMutability": "view",
      "type": "function"
    },
    {
      "inputs": [
        {
          "internalType": "address",
          "name": "newOwner",
          "type": "address"
        }
      ],
      "name": "transferOwnership",
      "outputs": [],
      "stateMutability": "nonpayable",
      "type": "function"
    },
    {
      "inputs": [
        {
          "internalType": "address",
          "name": "_node",
          "type": "address"
        }
      ],
      "name": "authorizeNode",
      "outputs": [],
      "stateMutability": "nonpayable",
      "type": "function"
    },
    {
      "inputs": [
        {
          "internalType": "address",
          "name": "_node",
          "type": "address"
        }
      ],
      "name": "deauthorizeNode",
      "outputs": [],
      "stateMutability": "nonpayable",
      "type": "function"
    },
    {
      "inputs": [
        {
          "internalType": "string",
          "name": "_nik",
          "type": "string"
        },
        {
          "internalType": "string",
          "name": "_nama",
          "type": "string"
        }
      ],
      "name": "verifyNIK",
      "outputs": [
        {
          "internalType": "bytes32",
          "name": "",
          "type": "bytes32"
        }
      ],
      "stateMutability": "nonpayable",
      "type": "function"
    },
    {
      "inputs": [
        {
          "internalType": "bytes32",
          "name": "_requestId",
          "type": "bytes32"
        },
        {
          "internalType": "bool",
          "name": "_isValid",
          "type": "bool"
        }
      ],
      "name": "completeVerification",
      "outputs": [],
      "stateMutability": "nonpayable",
      "type": "function"
    },
    {
      "inputs": [
        {
          "internalType": "bytes32",
          "name": "_requestId",
          "type": "bytes32"
        }
      ],
      "name": "isNIKVerified",
      "outputs": [
        {
          "internalType": "bool",
          "name": "completed",
          "type": "bool"
        },
        {
          "internalType": "bool",
          "name": "isValid",
          "type": "bool"
        }
      ],
      "stateMutability": "view",
      "type": "function"
    },
    {
      "inputs": [
        {
          "internalType": "bytes32",
          "name": "_requestId",
          "type": "bytes32"
        }
      ],
      "name": "getVerificationRequest",
      "outputs": [
        {
          "internalType": "address",
          "name": "requester",
          "type": "address"
        },
        {
          "internalType": "bool",
          "name": "processed",
          "type": "bool"
        },
        {
          "internalType": "bool",
          "name": "isValid",
          "type": "bool"
        },
        {
          "internalType": "uint256",
          "name": "timestamp",
          "type": "uint256"
        }
      ],
      "stateMutability": "view",
      "type": "function"
    },
    {
      "inputs": [
        {
          "internalType": "address",
          "name": "_node",
          "type": "address"
        }
      ],
      "name": "isAuthorizedNode",
      "outputs": [
        {
          "internalType": "bool",
          "name": "",
          "type": "bool"
        }
      ],
      "stateMutability": "view",
      "type": "function"
    }
  ],
  "bytecode": "0x608060405234801561001057600080fd5b50600080546001600160a01b03191633908117825580825260026020526040808320805460ff191660011790555190917f8638f01ed0471fe5cd807bb572bf42f715a4a2064a2c643b9d78bad2b95ec86f91a2610fc9806100726000396000f3fe608060405234801561001057600080fd5b50600436106100a95760003560e01c806398c5fcaf1161007157806398c5fcaf1461019e578063ab15a7bf146101ca578063acc72bc6146101df578063c92eca12146101f2578063d94d38001461021c578063f2fde38b1461022f57600080fd5b80630f3908c8146100ae5780634beb7d39146100dc57806375d7cf341461011f5780637e53a740146101405780638da5cb5b14610173575b600080fd5b6100c16100bc366004610ba1565b610242565b6040516100d396959493929190610c0a565b60405180910390f35b6100ef6100ea366004610ba1565b610399565b604080516001600160a01b03909516855292151560208501529015159183019190915260608201526080016100d3565b61013261012d366004610d02565b61053b565b6040519081526020016100d3565b61016361014e366004610d66565b60026020526000908152604090205460ff1681565b60405190151581526020016100d3565b600054610186906001600160a01b031681565b6040516001600160a01b0390911681526020016100d3565b6101636101ac366004610d66565b6001600160a01b031660009081526002602052604090205460ff1690565b6101dd6101d8366004610d66565b6106fc565b005b6101dd6101ed366004610d66565b61076f565b610205610200366004610ba1565b61082d565b6040805192151583529015156020830152016100d3565b6101dd61022a366004610d96565b6109be565b6101dd61023d366004610d66565b610b0d565b6001602081905260009182526040909120805491810180546001600160a01b039093169261026f90610dcb565b80601f016020809104026020016040519081016040528092919081815260200182805461029b90610dcb565b80156102e85780601f106102bd576101008083540402835291602001916102e8565b820191906000526020600020905b8154815290600101906020018083116102cb57829003601f168201915b5050505050908060020180546102fd90610dcb565b80601f016020809104026020016040519081016040528092919081815260200182805461032990610dcb565b80156103765780601f1061034b57610100808354040283529160200191610376565b820191906000526020600020905b81548152906001019060200180831161035957829003601f168201915b505050506003830154600490930154919260ff8082169361010090920416915086565b6000818152600160208181526040808420815160c0810190925280546001600160a01b03168252928301805485948594859485949093918401916103dc90610dcb565b80601f016020809104026020016040519081016040528092919081815260200182805461040890610dcb565b80156104555780601f1061042a57610100808354040283529160200191610455565b820191906000526020600020905b81548152906001019060200180831161043857829003601f168201915b5050505050815260200160028201805461046e90610dcb565b80601f016020809104026020016040519081016040528092919081815260200182805461049a90610dcb565b80156104e75780601f106104bc576101008083540402835291602001916104e7565b820191906000526020600020905b8154815290600101906020018083116104ca57829003601f168201915b5050509183525050600382015460ff808216151560208401526101009091041615156040820152600490910154606091820152815190820151608083015160a0909301519199909850919650945092505050565b6000825160101461058b5760405162461bcd60e51b81526020600482015260156024820152744e494b206d7573742062652031362064696769747360581b60448201526064015b60405180910390fd5b60008251116105cc5760405162461bcd60e51b815260206004820152600d60248201526c13985b59481c995c5d5a5c9959609a1b6044820152606401610582565b600033848442436040516020016105e7959493929190610e05565b60408051808303601f19018152828252805160209182012060c084018352338452818401888152848401889052600060608601819052608086018190524260a087015282815260019384905293909320845181546001600160a01b0319166001600160a01b039091161781559251909450908201906106669082610eaf565b506040820151600282019061067b9082610eaf565b506060820151600382018054608085015115156101000261ff00199315159390931661ffff199091161791909117905560a090910151600490910155604051339082907faf92676e6ce91b92427009a49e22fa6d354ed418db8d0965bca4232dcf3e658f906106ed9042815260200190565b60405180910390a39392505050565b6000546001600160a01b031633146107265760405162461bcd60e51b815260040161058290610f6f565b6001600160a01b038116600081815260026020526040808220805460ff19169055517f089a70336a39a34617fbc45fe7b3dda5daf714a8ce7c29a0d7c387b7bbd3963a9190a250565b6000546001600160a01b031633146107995760405162461bcd60e51b815260040161058290610f6f565b6001600160a01b0381166107e15760405162461bcd60e51b815260206004820152600f60248201526e496e76616c6964206164647265737360881b6044820152606401610582565b6001600160a01b038116600081815260026020526040808220805460ff19166001179055517f8638f01ed0471fe5cd807bb572bf42f715a4a2064a2c643b9d78bad2b95ec86f9190a250565b6000818152600160208181526040808420815160c0810190925280546001600160a01b0316825292830180548594859490929084019161086c90610dcb565b80601f016020809104026020016040519081016040528092919081815260200182805461089890610dcb565b80156108e55780601f106108ba576101008083540402835291602001916108e5565b820191906000526020600020905b8154815290600101906020018083116108c857829003601f168201915b505050505081526020016002820180546108fe90610dcb565b80601f016020809104026020016040519081016040528092919081815260200182805461092a90610dcb565b80156109775780601f1061094c57610100808354040283529160200191610977565b820191906000526020600020905b81548152906001019060200180831161095a57829003601f168201915b5050509183525050600382015460ff808216151560208401526101009091041615156040820152600490910154606091820152810151608090910151909590945092505050565b3360009081526002602052604090205460ff16610a0e5760405162461bcd60e51b815260206004820152600e60248201526d139bdd08185d5d1a1bdc9a5e995960921b6044820152606401610582565b600082815260016020526040902080546001600160a01b0316610a675760405162461bcd60e51b815260206004820152601160248201527014995c5d595cdd081b9bdd08199bdd5b99607a1b6044820152606401610582565b600381015460ff1615610ab05760405162461bcd60e51b8152602060048201526011602482015270105b1c9958591e481c1c9bd8d95cdcd959607a1b6044820152606401610582565b6003810180548315156101000261ffff1990911617600117905560405183907fa289beb80c68c0f30d87dd708a039781dd73018ea8370cd36dbd9cc5ebe9fb7490610b0090851515815260200190565b60405180910390a2505050565b6000546001600160a01b03163314610b375760405162461bcd60e51b815260040161058290610f6f565b6001600160a01b038116610b7f5760405162461bcd60e51b815260206004820152600f60248201526e496e76616c6964206164647265737360881b6044820152606401610582565b600080546001600160a01b0319166001600160a01b0392909216919091179055565b600060208284031215610bb357600080fd5b5035919050565b60005b83811015610bd5578181015183820152602001610bbd565b50506000910152565b60008151808452610bf6816020860160208601610bba565b601f01601f19169290920160200192915050565b6001600160a01b038716815260c060208201819052600090610c2e90830188610bde565b8281036040840152610c408188610bde565b95151560608401525050911515608083015260a0909101529392505050565b634e487b7160e01b600052604160045260246000fd5b600082601f830112610c8657600080fd5b813567ffffffffffffffff80821115610ca157610ca1610c5f565b604051601f8301601f19908116603f01168101908282118183101715610cc957610cc9610c5f565b81604052838152866020858801011115610ce257600080fd5b836020870160208301376000602085830101528094505050505092915050565b60008060408385031215610d1557600080fd5b823567ffffffffffffffff80821115610d2d57600080fd5b610d3986838701610c75565b93506020850135915080821115610d4f57600080fd5b50610d5c85828601610c75565b9150509250929050565b600060208284031215610d7857600080fd5b81356001600160a01b0381168114610d8f57600080fd5b9392505050565b60008060408385031215610da957600080fd5b8235915060208301358015158114610dc057600080fd5b809150509250929050565b600181811c90821680610ddf57607f821691505b602082108103610dff57634e487b7160e01b600052602260045260246000fd5b50919050565b6bffffffffffffffffffffffff198660601b16815260008551610e2f816014850160208a01610bba565b855190830190610e46816014840160208a01610bba565b016014810194909452505060348201526054019392505050565b601f821115610eaa57600081815260208120601f850160051c81016020861015610e875750805b601f850160051c820191505b81811015610ea657828155600101610e93565b5050505b505050565b815167ffffffffffffffff811115610ec957610ec9610c5f565b610edd81610ed78454610dcb565b84610e60565b602080601f831160018114610f125760008415610efa5750858301515b600019600386901b1c1916600185901b178555610ea6565b600085815260208120601f198616915b82811015610f4157888601518255948401946001909101908401610f22565b5085821015610f5f5787850151600019600388901b60f8161c191681555b5050505050600190811b01905550565b6020808252600a908201526927b7363c9037bbb732b960b11b60408201526060019056fea2646970667358221220163d62af69cfa1a7d0a06dde41d654c581e86ca5a69388ed2aca89428e23265464736f6c63430008130033",
  "immutableReferences": {},
  "source": "// SPDX-License-Identifier: MIT\npragma solidity ^0.8.19;\n\n// Ultra Simple NIK Oracle - No inheritance, minimal constructor\ncontract NIKVerificationOracle {\n    \n    // Simple owner management\n    address public owner;\n    \n    struct VerificationRequest {\n        address requester;\n        string nik;\n        string nama;\n        bool processed;\n        bool isValid;\n        uint256 timestamp;\n    }\n    \n    // Storage\n    mapping(bytes32 => VerificationRequest) public verificationRequests;\n    mapping(address => bool) public authorizedNodes;\n    \n    // Events\n    event VerificationRequested(\n        bytes32 indexed requestId, \n        address indexed requester, \n        uint256 timestamp\n    );\n    \n    event VerificationCompleted(\n        bytes32 indexed requestId, \n        bool isValid\n    );\n    \n    event NodeAuthorized(address indexed node);\n    event NodeDeauthorized(address indexed node);\n    \n    // Modifiers\n    modifier onlyOwner() {\n        require(msg.sender == owner, \"Only owner\");\n        _;\n    }\n    \n    modifier onlyAuthorizedNode() {\n        require(authorizedNodes[msg.sender], \"Not authorized\");\n        _;\n    }\n    \n    // Minimal constructor - just set owner\n    constructor() {\n        owner = msg.sender;\n        authorizedNodes[msg.sender] = true;\n        emit NodeAuthorized(msg.sender);\n    }\n    \n    // Basic owner management\n    function transferOwnership(address newOwner) external onlyOwner {\n        require(newOwner != address(0), \"Invalid address\");\n        owner = newOwner;\n    }\n    \n    // Authorize verification node\n    function authorizeNode(address _node) external onlyOwner {\n        require(_node != address(0), \"Invalid address\");\n        authorizedNodes[_node] = true;\n        emit NodeAuthorized(_node);\n    }\n    \n    // Deauthorize verification node\n    function deauthorizeNode(address _node) external onlyOwner {\n        authorizedNodes[_node] = false;\n        emit NodeDeauthorized(_node);\n    }\n    \n    // Request NIK verification - simplified random generation\n    function verifyNIK(string memory _nik, string memory _nama) external returns (bytes32) {\n        require(bytes(_nik).length == 16, \"NIK must be 16 digits\");\n        require(bytes(_nama).length > 0, \"Name required\");\n        \n        // Simple request ID generation (avoid block.prevrandao issue)\n        bytes32 requestId = keccak256(abi.encodePacked(\n            msg.sender,\n            _nik,\n            _nama,\n            block.timestamp,\n            block.number  // Use block.number instead of prevrandao\n        ));\n        \n        // Store request\n        verificationRequests[requestId] = VerificationRequest({\n            requester: msg.sender,\n            nik: _nik,\n            nama: _nama,\n            processed: false,\n            isValid: false,\n            timestamp: block.timestamp\n        });\n        \n        emit VerificationRequested(requestId, msg.sender, block.timestamp);\n        return requestId;\n    }\n    \n    // Complete verification\n    function completeVerification(bytes32 _requestId, bool _isValid) external onlyAuthorizedNode {\n        VerificationRequest storage request = verificationRequests[_requestId];\n        \n        require(request.requester != address(0), \"Request not found\");\n        require(!request.processed, \"Already processed\");\n        \n        request.processed = true;\n        request.isValid = _isValid;\n        \n        emit VerificationCompleted(_requestId, _isValid);\n    }\n    \n    // Check verification status\n    function isNIKVerified(bytes32 _requestId) external view returns (bool completed, bool isValid) {\n        VerificationRequest memory request = verificationRequests[_requestId];\n        return (request.processed, request.isValid);\n    }\n    \n    // Get request details\n    function getVerificationRequest(bytes32 _requestId) \n        external \n        view \n        returns (\n            address requester,\n            bool processed,\n            bool isValid,\n            uint256 timestamp\n        ) \n    {\n        VerificationRequest memory request = verificationRequests[_requestId];\n        return (\n            request.requester,\n            request.processed,\n            request.isValid,\n            request.timestamp\n        );\n    }\n    \n    // Check authorization\n    function isAuthorizedNode(address _node) external view returns (bool) {\n        return authorizedNodes[_node];\n    }\n}",
  "sourcePath": "/home/sophie/blockchain-project/voting-system/contracts/NIKVerificationOracle.sol",
  "compiler": {
    "name": "solc",
    "version": "0.8.19+commit.7dd6d404.Emscripten.clang"
  },
  "schemaVersion": "3.4.16",
  "updatedAt": "2025-06-01T03:07:23.731Z",
  "devdoc": {
    "kind": "dev",
    "methods": {},
    "version": 1
  },
  "userdoc": {
    "kind": "user",
    "methods": {},
    "version": 1
  }
}