{
  "contractName": "VotingSystem",
  "abi": [
    {
      "inputs": [],
      "stateMutability": "nonpayable",
      "type": "constructor"
    },
    {
      "anonymous": false,
      "inputs": [
        {
          "indexed": true,
          "internalType": "uint256",
          "name": "electionId",
          "type": "uint256"
        },
        {
          "indexed": true,
          "internalType": "uint256",
          "name": "candidateId",
          "type": "uint256"
        },
        {
          "indexed": false,
          "internalType": "string",
          "name": "name",
          "type": "string"
        },
        {
          "indexed": false,
          "internalType": "string",
          "name": "details",
          "type": "string"
        }
      ],
      "name": "CandidateAdded",
      "type": "event"
    },
    {
      "anonymous": false,
      "inputs": [
        {
          "indexed": true,
          "internalType": "uint256",
          "name": "electionId",
          "type": "uint256"
        },
        {
          "indexed": false,
          "internalType": "string",
          "name": "name",
          "type": "string"
        },
        {
          "indexed": false,
          "internalType": "uint256",
          "name": "startTime",
          "type": "uint256"
        },
        {
          "indexed": false,
          "internalType": "uint256",
          "name": "endTime",
          "type": "uint256"
        },
        {
          "indexed": false,
          "internalType": "address",
          "name": "creator",
          "type": "address"
        }
      ],
      "name": "ElectionCreated",
      "type": "event"
    },
    {
      "anonymous": false,
      "inputs": [
        {
          "indexed": true,
          "internalType": "uint256",
          "name": "electionId",
          "type": "uint256"
        },
        {
          "indexed": false,
          "internalType": "bool",
          "name": "active",
          "type": "bool"
        }
      ],
      "name": "ElectionStatusChanged",
      "type": "event"
    },
    {
      "anonymous": false,
      "inputs": [
        {
          "indexed": true,
          "internalType": "address",
          "name": "previousOwner",
          "type": "address"
        },
        {
          "indexed": true,
          "internalType": "address",
          "name": "newOwner",
          "type": "address"
        }
      ],
      "name": "OwnershipTransferred",
      "type": "event"
    },
    {
      "anonymous": false,
      "inputs": [
        {
          "indexed": true,
          "internalType": "uint256",
          "name": "electionId",
          "type": "uint256"
        },
        {
          "indexed": true,
          "internalType": "uint256",
          "name": "candidateId",
          "type": "uint256"
        },
        {
          "indexed": true,
          "internalType": "address",
          "name": "voter",
          "type": "address"
        }
      ],
      "name": "VoteSubmitted",
      "type": "event"
    },
    {
      "anonymous": false,
      "inputs": [
        {
          "indexed": true,
          "internalType": "uint256",
          "name": "electionId",
          "type": "uint256"
        },
        {
          "indexed": true,
          "internalType": "address",
          "name": "voter",
          "type": "address"
        },
        {
          "indexed": false,
          "internalType": "bytes32",
          "name": "requestId",
          "type": "bytes32"
        }
      ],
      "name": "VoterRegistrationRequested",
      "type": "event"
    },
    {
      "anonymous": false,
      "inputs": [
        {
          "indexed": true,
          "internalType": "uint256",
          "name": "electionId",
          "type": "uint256"
        },
        {
          "indexed": true,
          "internalType": "address",
          "name": "voter",
          "type": "address"
        },
        {
          "indexed": false,
          "internalType": "bool",
          "name": "verified",
          "type": "bool"
        }
      ],
      "name": "VoterVerified",
      "type": "event"
    },
    {
      "inputs": [
        {
          "internalType": "uint256",
          "name": "",
          "type": "uint256"
        }
      ],
      "name": "candidates",
      "outputs": [
        {
          "internalType": "uint256",
          "name": "id",
          "type": "uint256"
        },
        {
          "internalType": "uint256",
          "name": "electionId",
          "type": "uint256"
        },
        {
          "internalType": "string",
          "name": "name",
          "type": "string"
        },
        {
          "internalType": "string",
          "name": "details",
          "type": "string"
        },
        {
          "internalType": "uint256",
          "name": "voteCount",
          "type": "uint256"
        }
      ],
      "stateMutability": "view",
      "type": "function"
    },
    {
      "inputs": [
        {
          "internalType": "uint256",
          "name": "",
          "type": "uint256"
        },
        {
          "internalType": "uint256",
          "name": "",
          "type": "uint256"
        }
      ],
      "name": "electionCandidates",
      "outputs": [
        {
          "internalType": "uint256",
          "name": "",
          "type": "uint256"
        }
      ],
      "stateMutability": "view",
      "type": "function"
    },
    {
      "inputs": [],
      "name": "electionCount",
      "outputs": [
        {
          "internalType": "uint256",
          "name": "",
          "type": "uint256"
        }
      ],
      "stateMutability": "view",
      "type": "function"
    },
    {
      "inputs": [
        {
          "internalType": "uint256",
          "name": "",
          "type": "uint256"
        },
        {
          "internalType": "address",
          "name": "",
          "type": "address"
        }
      ],
      "name": "electionVoters",
      "outputs": [
        {
          "internalType": "string",
          "name": "name",
          "type": "string"
        },
        {
          "internalType": "string",
          "name": "nikHash",
          "type": "string"
        },
        {
          "internalType": "enum VotingSystem.VoterStatus",
          "name": "status",
          "type": "uint8"
        },
        {
          "internalType": "uint256",
          "name": "votedFor",
          "type": "uint256"
        },
        {
          "internalType": "uint256",
          "name": "timestamp",
          "type": "uint256"
        },
        {
          "internalType": "bool",
          "name": "nikVerified",
          "type": "bool"
        }
      ],
      "stateMutability": "view",
      "type": "function"
    },
    {
      "inputs": [
        {
          "internalType": "uint256",
          "name": "",
          "type": "uint256"
        }
      ],
      "name": "elections",
      "outputs": [
        {
          "internalType": "uint256",
          "name": "id",
          "type": "uint256"
        },
        {
          "internalType": "string",
          "name": "name",
          "type": "string"
        },
        {
          "internalType": "string",
          "name": "description",
          "type": "string"
        },
        {
          "internalType": "uint256",
          "name": "startTime",
          "type": "uint256"
        },
        {
          "internalType": "uint256",
          "name": "endTime",
          "type": "uint256"
        },
        {
          "internalType": "uint256",
          "name": "candidateCount",
          "type": "uint256"
        },
        {
          "internalType": "uint256",
          "name": "totalVotes",
          "type": "uint256"
        },
        {
          "internalType": "bool",
          "name": "active",
          "type": "bool"
        },
        {
          "internalType": "address",
          "name": "creator",
          "type": "address"
        }
      ],
      "stateMutability": "view",
      "type": "function"
    },
    {
      "inputs": [],
      "name": "nikOracle",
      "outputs": [
        {
          "internalType": "address",
          "name": "",
          "type": "address"
        }
      ],
      "stateMutability": "view",
      "type": "function"
    },
    {
      "inputs": [],
      "name": "owner",
      "outputs": [
        {
          "internalType": "address",
          "name": "",
          "type": "address"
        }
      ],
      "stateMutability": "view",
      "type": "function"
    },
    {
      "inputs": [
        {
          "internalType": "string",
          "name": "",
          "type": "string"
        }
      ],
      "name": "usedNIKHashes",
      "outputs": [
        {
          "internalType": "bool",
          "name": "",
          "type": "bool"
        }
      ],
      "stateMutability": "view",
      "type": "function"
    },
    {
      "inputs": [
        {
          "internalType": "address",
          "name": "_oracleAddress",
          "type": "address"
        }
      ],
      "name": "setOracleAddress",
      "outputs": [],
      "stateMutability": "nonpayable",
      "type": "function"
    },
    {
      "inputs": [
        {
          "internalType": "address",
          "name": "newOwner",
          "type": "address"
        }
      ],
      "name": "transferOwnership",
      "outputs": [],
      "stateMutability": "nonpayable",
      "type": "function"
    },
    {
      "inputs": [
        {
          "internalType": "string",
          "name": "_name",
          "type": "string"
        },
        {
          "internalType": "string",
          "name": "_description",
          "type": "string"
        },
        {
          "internalType": "uint256",
          "name": "_startTime",
          "type": "uint256"
        },
        {
          "internalType": "uint256",
          "name": "_endTime",
          "type": "uint256"
        }
      ],
      "name": "createElection",
      "outputs": [
        {
          "internalType": "uint256",
          "name": "",
          "type": "uint256"
        }
      ],
      "stateMutability": "nonpayable",
      "type": "function"
    },
    {
      "inputs": [
        {
          "internalType": "uint256",
          "name": "_electionId",
          "type": "uint256"
        },
        {
          "internalType": "string",
          "name": "_name",
          "type": "string"
        },
        {
          "internalType": "string",
          "name": "_details",
          "type": "string"
        }
      ],
      "name": "addCandidate",
      "outputs": [],
      "stateMutability": "nonpayable",
      "type": "function"
    },
    {
      "inputs": [
        {
          "internalType": "uint256",
          "name": "_electionId",
          "type": "uint256"
        },
        {
          "internalType": "string",
          "name": "_name",
          "type": "string"
        },
        {
          "internalType": "string",
          "name": "_nik",
          "type": "string"
        }
      ],
      "name": "registerVoter",
      "outputs": [],
      "stateMutability": "nonpayable",
      "type": "function"
    },
    {
      "inputs": [
        {
          "internalType": "uint256",
          "name": "_electionId",
          "type": "uint256"
        },
        {
          "internalType": "uint256",
          "name": "_candidateId",
          "type": "uint256"
        }
      ],
      "name": "castVote",
      "outputs": [],
      "stateMutability": "nonpayable",
      "type": "function"
    },
    {
      "inputs": [
        {
          "internalType": "uint256",
          "name": "_electionId",
          "type": "uint256"
        },
        {
          "internalType": "address",
          "name": "_voter",
          "type": "address"
        }
      ],
      "name": "getVoterStatus",
      "outputs": [
        {
          "internalType": "enum VotingSystem.VoterStatus",
          "name": "",
          "type": "uint8"
        },
        {
          "internalType": "bool",
          "name": "",
          "type": "bool"
        }
      ],
      "stateMutability": "view",
      "type": "function"
    },
    {
      "inputs": [
        {
          "internalType": "uint256",
          "name": "_electionId",
          "type": "uint256"
        }
      ],
      "name": "getElectionCandidates",
      "outputs": [
        {
          "internalType": "uint256[]",
          "name": "",
          "type": "uint256[]"
        }
      ],
      "stateMutability": "view",
      "type": "function"
    },
    {
      "inputs": [
        {
          "internalType": "uint256",
          "name": "_candidateId",
          "type": "uint256"
        }
      ],
      "name": "getCandidateInfo",
      "outputs": [
        {
          "internalType": "uint256",
          "name": "",
          "type": "uint256"
        },
        {
          "internalType": "string",
          "name": "",
          "type": "string"
        },
        {
          "internalType": "string",
          "name": "",
          "type": "string"
        },
        {
          "internalType": "uint256",
          "name": "",
          "type": "uint256"
        }
      ],
      "stateMutability": "view",
      "type": "function"
    },
    {
      "inputs": [
        {
          "internalType": "uint256",
          "name": "_electionId",
          "type": "uint256"
        }
      ],
      "name": "isElectionActive",
      "outputs": [
        {
          "internalType": "bool",
          "name": "",
          "type": "bool"
        }
      ],
      "stateMutability": "view",
      "type": "function"
    },
    {
      "inputs": [
        {
          "internalType": "uint256",
          "name": "_electionId",
          "type": "uint256"
        },
        {
          "internalType": "address",
          "name": "_voter",
          "type": "address"
        }
      ],
      "name": "getUserVote",
      "outputs": [
        {
          "internalType": "uint256",
          "name": "",
          "type": "uint256"
        }
      ],
      "stateMutability": "view",
      "type": "function"
    },
    {
      "inputs": [
        {
          "internalType": "uint256",
          "name": "_electionId",
          "type": "uint256"
        },
        {
          "internalType": "address",
          "name": "_voter",
          "type": "address"
        }
      ],
      "name": "getUserVoteTimestamp",
      "outputs": [
        {
          "internalType": "uint256",
          "name": "",
          "type": "uint256"
        }
      ],
      "stateMutability": "view",
      "type": "function"
    },
    {
      "inputs": [
        {
          "internalType": "uint256",
          "name": "_electionId",
          "type": "uint256"
        },
        {
          "internalType": "bool",
          "name": "_active",
          "type": "bool"
        }
      ],
      "name": "setElectionStatus",
      "outputs": [],
      "stateMutability": "nonpayable",
      "type": "function"
    },
    {
      "inputs": [
        {
          "internalType": "uint256",
          "name": "_electionId",
          "type": "uint256"
        },
        {
          "internalType": "address",
          "name": "_voter",
          "type": "address"
        }
      ],
      "name": "voterStatus",
      "outputs": [
        {
          "internalType": "enum VotingSystem.VoterStatus",
          "name": "",
          "type": "uint8"
        }
      ],
      "stateMutability": "view",
      "type": "function"
    }
  ],
  "bytecode": "0x608060405234801561001057600080fd5b50600080546001600160a01b031916339081178255600282905560038290556001805460ff60a01b191690556040519091907f8be0079c531659141344cd1fd0a4f28419497f9722a3daafe3b4186f6b6457e0908290a3612461806100766000396000f3fe608060405234801561001057600080fd5b50600436106101425760003560e01c80637ad36e84116100b8578063cd65a20a1161007c578063cd65a20a14610323578063d5617ecf14610336578063e6c62efc14610349578063f2fde38b1461035c578063f3d34f3a1461036f578063f5728fbe1461038257600080fd5b80637ad36e84146102c05780638da5cb5b146102d3578063942f56bd146102e6578063997d283014610307578063a42c56f71461031057600080fd5b80635e12845e1161010a5780635e12845e146101e45780635e6fef011461020457806368d59bc81461022c5780636a14edfd1461026a5780636ee17f6f1461028a57806370f67cfe1461029d57600080fd5b806303c7881a146101475780632c0a3f891461016d5780633477ee2e146101825780633d0b4a6e146101a65780634c69c00f146101d1575b600080fd5b61015a610155366004611c86565b6103a7565b6040519081526020015b60405180910390f35b61018061017b366004611cb2565b610482565b005b610195610190366004611cd4565b610793565b604051610164959493929190611d3d565b6001546101b9906001600160a01b031681565b6040516001600160a01b039091168152602001610164565b6101806101df366004611d81565b6108d2565b6101f76101f2366004611cd4565b61093b565b6040516101649190611d9c565b610217610212366004611cd4565b6109cb565b60405161016499989796959493929190611de0565b61025a61023a366004611ef1565b805160208183018101805160088252928201919093012091525460ff1681565b6040519015158152602001610164565b61027d610278366004611c86565b610b31565b6040516101649190611f5e565b61025a610298366004611cd4565b610b8f565b6102b06102ab366004611cd4565b610bd7565b6040516101649493929190611f6c565b61015a6102ce366004611fa9565b610db5565b6000546101b9906001600160a01b031681565b6102f96102f4366004611c86565b610f2b565b60405161016492919061201d565b61015a60025481565b61015a61031e366004611cb2565b61111a565b61018061033136600461203a565b61114b565b6101806103443660046120a7565b611522565b61018061035736600461203a565b611607565b61018061036a366004611d81565b6117e3565b61015a61037d366004611c86565b6118cd565b610395610390366004611c86565b61199d565b604051610164969594939291906120dc565b600080831180156103ba57506002548311155b6103df5760405162461bcd60e51b81526004016103d690612130565b60405180910390fd5b600360008481526007602090815260408083206001600160a01b038716845290915290206002015460ff16600381111561041b5761041b611f26565b146104545760405162461bcd60e51b8152602060048201526009602482015268139bdd081d9bdd195960ba1b60448201526064016103d6565b5060008281526007602090815260408083206001600160a01b03851684529091529020600301545b92915050565b600154600160a01b900460ff16156104cd5760405162461bcd60e51b815260206004820152600e60248201526d1499595b9d1c985b9d0818d85b1b60921b60448201526064016103d6565b6001805460ff60a01b1916600160a01b17905581158015906104f157506002548211155b61050d5760405162461bcd60e51b81526004016103d690612130565b6000828152600460205260409020600781015460ff166105655760405162461bcd60e51b8152602060048201526013602482015272456c656374696f6e206e6f742061637469766560681b60448201526064016103d6565b80600301544210156105a75760405162461bcd60e51b815260206004820152600b60248201526a139bdd081cdd185c9d195960aa1b60448201526064016103d6565b80600401544211156105e35760405162461bcd60e51b8152602060048201526005602482015264115b99195960da1b60448201526064016103d6565b6000838152600760209081526040808320338452909152902060028082015460ff16600381111561061657610616611f26565b146106545760405162461bcd60e51b815260206004820152600e60248201526d139bdd081c9959da5cdd195c995960921b60448201526064016103d6565b600581015460ff166106975760405162461bcd60e51b815260206004820152600c60248201526b139bdd081d995c9a599a595960a21b60448201526064016103d6565b6000831180156106b7575060008381526005602052604090206001015484145b6106f75760405162461bcd60e51b8152602060048201526011602482015270496e76616c69642063616e64696461746560781b60448201526064016103d6565b60028101805460ff19166003908117909155810183905542600480830191909155600084815260056020526040812090910180549161073583612170565b909155505060068201805490600061074c83612170565b90915550506040513390849086907fda5ef9e376c941ca1c3a24da035b0dc80de942e10915eb12df78540f1d0793ec90600090a450506001805460ff60a01b191690555050565b600560205260009081526040902080546001820154600283018054929391926107bb90612189565b80601f01602080910402602001604051908101604052809291908181526020018280546107e790612189565b80156108345780601f1061080957610100808354040283529160200191610834565b820191906000526020600020905b81548152906001019060200180831161081757829003601f168201915b50505050509080600301805461084990612189565b80601f016020809104026020016040519081016040528092919081815260200182805461087590612189565b80156108c25780601f10610897576101008083540402835291602001916108c2565b820191906000526020600020905b8154815290600101906020018083116108a557829003601f168201915b5050505050908060040154905085565b6000546001600160a01b031633146109195760405162461bcd60e51b815260206004820152600a60248201526927b7363c9037bbb732b960b11b60448201526064016103d6565b600180546001600160a01b0319166001600160a01b0392909216919091179055565b606060008211801561094f57506002548211155b61096b5760405162461bcd60e51b81526004016103d690612130565b600082815260066020908152604091829020805483518184028101840190945280845290918301828280156109bf57602002820191906000526020600020905b8154815260200190600101908083116109ab575b50505050509050919050565b600460205260009081526040902080546001820180549192916109ed90612189565b80601f0160208091040260200160405190810160405280929190818152602001828054610a1990612189565b8015610a665780601f10610a3b57610100808354040283529160200191610a66565b820191906000526020600020905b815481529060010190602001808311610a4957829003601f168201915b505050505090806002018054610a7b90612189565b80601f0160208091040260200160405190810160405280929190818152602001828054610aa790612189565b8015610af45780601f10610ac957610100808354040283529160200191610af4565b820191906000526020600020905b815481529060010190602001808311610ad757829003601f168201915b505050600384015460048501546005860154600687015460079097015495969295919450925060ff8116906001600160a01b036101009091041689565b60008083118015610b4457506002548311155b610b605760405162461bcd60e51b81526004016103d690612130565b5060009182526007602090815260408084206001600160a01b0393909316845291905290206002015460ff1690565b60008082118015610ba257506002548211155b610bbe5760405162461bcd60e51b81526004016103d690612130565b5060009081526004602052604090206007015460ff1690565b600060608060008085118015610bef57506003548511155b610c2f5760405162461bcd60e51b8152602060048201526011602482015270496e76616c69642063616e64696461746560781b60448201526064016103d6565b6000600560008781526020019081526020016000206040518060a00160405290816000820154815260200160018201548152602001600282018054610c7390612189565b80601f0160208091040260200160405190810160405280929190818152602001828054610c9f90612189565b8015610cec5780601f10610cc157610100808354040283529160200191610cec565b820191906000526020600020905b815481529060010190602001808311610ccf57829003601f168201915b50505050508152602001600382018054610d0590612189565b80601f0160208091040260200160405190810160405280929190818152602001828054610d3190612189565b8015610d7e5780601f10610d5357610100808354040283529160200191610d7e565b820191906000526020600020905b815481529060010190602001808311610d6157829003601f168201915b5050509183525050600491909101546020909101528051604082015160608301516080909301519199909850919650945092505050565b6000818310610dfb5760405162461bcd60e51b8152602060048201526012602482015271496e76616c69642074696d652072616e676560701b60448201526064016103d6565b428211610e3d5760405162461bcd60e51b815260206004820152601060248201526f115b99081d1a5b59481a5b881c185cdd60821b60448201526064016103d6565b6000855111610e5e5760405162461bcd60e51b81526004016103d6906121c3565b60028054906000610e6e83612170565b9091555050600254600081815260046020526040902081815560018101610e958882612239565b5060028101610ea48782612239565b50600381018590556004810184905560006005820181905560068201556007810180543361010081026001600160a81b03199092169190911760011790915560405183917f13ac008e0cdce4387b5f85e53dd6fd03c11f7170f920652af23fea832170559691610f19918b918a918a916122f9565b60405180910390a25095945050505050565b600080600084118015610f4057506002548411155b610f5c5760405162461bcd60e51b81526004016103d690612130565b60008481526007602090815260408083206001600160a01b0387168452909152808220815160c08101909252805482908290610f9790612189565b80601f0160208091040260200160405190810160405280929190818152602001828054610fc390612189565b80156110105780601f10610fe557610100808354040283529160200191611010565b820191906000526020600020905b815481529060010190602001808311610ff357829003601f168201915b5050505050815260200160018201805461102990612189565b80601f016020809104026020016040519081016040528092919081815260200182805461105590612189565b80156110a25780601f10611077576101008083540402835291602001916110a2565b820191906000526020600020905b81548152906001019060200180831161108557829003601f168201915b5050509183525050600282015460209091019060ff1660038111156110c9576110c9611f26565b60038111156110da576110da611f26565b815260038201546020820152600482015460408083019190915260059092015460ff16151560609091015281015160a09091015190969095509350505050565b6006602052816000526040600020818154811061113657600080fd5b90600052602060002001600091509150505481565b600154600160a01b900460ff16156111965760405162461bcd60e51b815260206004820152600e60248201526d1499595b9d1c985b9d0818d85b1b60921b60448201526064016103d6565b6001805460ff60a01b1916600160a01b17905582158015906111ba57506002548311155b6111d65760405162461bcd60e51b81526004016103d690612130565b60008251116111f75760405162461bcd60e51b81526004016103d6906121c3565b80516010146112405760405162461bcd60e51b81526020600482015260156024820152744e494b206d7573742062652031362064696769747360581b60448201526064016103d6565b600083815260076020908152604080832033845290915281206002015460ff16600381111561127157611271611f26565b146112b35760405162461bcd60e51b8152602060048201526012602482015271105b1c9958591e481c9959da5cdd195c995960721b60448201526064016103d6565b8060005b815181101561136c57603060f81b8282815181106112d7576112d7612331565b01602001516001600160f81b031916108015906113185750603960f81b82828151811061130657611306612331565b01602001516001600160f81b03191611155b61135a5760405162461bcd60e51b81526020600482015260136024820152724e494b206d757374206265206e756d6572696360681b60448201526064016103d6565b8061136481612170565b9150506112b7565b5060006113798333611af3565b905060088160405161138b9190612347565b9081526040519081900360200190205460ff16156113de5760405162461bcd60e51b815260206004820152601060248201526f139252c8185b1c9958591e481d5cd95960821b60448201526064016103d6565b60016008826040516113f09190612347565b90815260405160209181900382018120805460ff19169315159390931790925560009161142591339187914291439101612363565b60408051601f19818403018152918152815160209283012060008981526007845282812033825290935291209091508061145f8782612239565b506001810161146e8482612239565b506002818101805460ff19908116909217905560006003830181905560048301556005820180549091166001179055604051828152339088907febc6f34d7a20e97ed705d05fdae55d5f7fe63e631655bb2c8b99743bd637a2af9060200160405180910390a360405160018152339088907fccc3951f772a881f4af4f4b008f1073f1bbecde0390b722716931a1c2e0d47889060200160405180910390a350506001805460ff60a01b191690555050505050565b60008211801561153457506002548211155b6115505760405162461bcd60e51b81526004016103d690612130565b60008281526004602052604090206007015461010090046001600160a01b031633146115ad5760405162461bcd60e51b815260206004820152600c60248201526b27b7363c9031b932b0ba37b960a11b60448201526064016103d6565b600082815260046020908152604091829020600701805460ff1916841515908117909155915191825283917f550243ff1a84cc99f7f82bfd2e29380f33523ca72cde0783141c25ed8f4dede3910160405180910390a25050565b60008311801561161957506002548311155b6116355760405162461bcd60e51b81526004016103d690612130565b60008381526004602052604090206007015461010090046001600160a01b031633146116925760405162461bcd60e51b815260206004820152600c60248201526b27b7363c9031b932b0ba37b960a11b60448201526064016103d6565b60008381526004602052604090206003015442106116e55760405162461bcd60e51b815260206004820152601060248201526f115b1958dd1a5bdb881cdd185c9d195960821b60448201526064016103d6565b60008251116117065760405162461bcd60e51b81526004016103d6906121c3565b6003805490600061171683612170565b9091555050600354600081815260056020526040902081815560018101859055600281016117448582612239565b50600381016117538482612239565b50600060048083018290558682526020526040812060050180549161177783612170565b909155505060008581526006602090815260408083208054600181018255908452919092200183905551829086907f503cfceb0fb2178c5fb47ff394c816e4075abc8066c3dcb16d08a76847ee6e16906117d490889088906123a7565b60405180910390a35050505050565b6000546001600160a01b0316331461182a5760405162461bcd60e51b815260206004820152600a60248201526927b7363c9037bbb732b960b11b60448201526064016103d6565b6001600160a01b0381166118725760405162461bcd60e51b815260206004820152600f60248201526e496e76616c6964206164647265737360881b60448201526064016103d6565b600080546040516001600160a01b03808516939216917f8be0079c531659141344cd1fd0a4f28419497f9722a3daafe3b4186f6b6457e091a3600080546001600160a01b0319166001600160a01b0392909216919091179055565b600080831180156118e057506002548311155b6118fc5760405162461bcd60e51b81526004016103d690612130565b600360008481526007602090815260408083206001600160a01b038716845290915290206002015460ff16600381111561193857611938611f26565b146119715760405162461bcd60e51b8152602060048201526009602482015268139bdd081d9bdd195960ba1b60448201526064016103d6565b5060009182526007602090815260408084206001600160a01b0393909316845291905290206004015490565b60076020908152600092835260408084209091529082529020805481906119c390612189565b80601f01602080910402602001604051908101604052809291908181526020018280546119ef90612189565b8015611a3c5780601f10611a1157610100808354040283529160200191611a3c565b820191906000526020600020905b815481529060010190602001808311611a1f57829003601f168201915b505050505090806001018054611a5190612189565b80601f0160208091040260200160405190810160405280929190818152602001828054611a7d90612189565b8015611aca5780601f10611a9f57610100808354040283529160200191611aca565b820191906000526020600020905b815481529060010190602001808311611aad57829003601f168201915b505050600284015460038501546004860154600590960154949560ff9283169591945092501686565b606060008383604051602001611b0a9291906123d5565b604051602081830303815290604052805190602001209050611b2b81611b33565b949350505050565b606060005b60208160ff16108015611b6c5750828160ff1660208110611b5b57611b5b612331565b1a60f81b6001600160f81b03191615155b15611b835780611b7b8161240c565b915050611b38565b60008160ff1667ffffffffffffffff811115611ba157611ba1611e4e565b6040519080825280601f01601f191660200182016040528015611bcb576020820181803683370190505b509050600091505b60208260ff16108015611c075750838260ff1660208110611bf657611bf6612331565b1a60f81b6001600160f81b03191615155b15611c6357838260ff1660208110611c2157611c21612331565b1a60f81b818360ff1681518110611c3a57611c3a612331565b60200101906001600160f81b031916908160001a90535081611c5b8161240c565b925050611bd3565b9392505050565b80356001600160a01b0381168114611c8157600080fd5b919050565b60008060408385031215611c9957600080fd5b82359150611ca960208401611c6a565b90509250929050565b60008060408385031215611cc557600080fd5b50508035926020909101359150565b600060208284031215611ce657600080fd5b5035919050565b60005b83811015611d08578181015183820152602001611cf0565b50506000910152565b60008151808452611d29816020860160208601611ced565b601f01601f19169290920160200192915050565b85815284602082015260a060408201526000611d5c60a0830186611d11565b8281036060840152611d6e8186611d11565b9150508260808301529695505050505050565b600060208284031215611d9357600080fd5b611c6382611c6a565b6020808252825182820181905260009190848201906040850190845b81811015611dd457835183529284019291840191600101611db8565b50909695505050505050565b60006101208b8352806020840152611dfa8184018c611d11565b90508281036040840152611e0e818b611d11565b60608401999099525050608081019590955260a085019390935260c0840191909152151560e08301526001600160a01b0316610100909101529392505050565b634e487b7160e01b600052604160045260246000fd5b600082601f830112611e7557600080fd5b813567ffffffffffffffff80821115611e9057611e90611e4e565b604051601f8301601f19908116603f01168101908282118183101715611eb857611eb8611e4e565b81604052838152866020858801011115611ed157600080fd5b836020870160208301376000602085830101528094505050505092915050565b600060208284031215611f0357600080fd5b813567ffffffffffffffff811115611f1a57600080fd5b611b2b84828501611e64565b634e487b7160e01b600052602160045260246000fd5b60048110611f5a57634e487b7160e01b600052602160045260246000fd5b9052565b6020810161047c8284611f3c565b848152608060208201526000611f856080830186611d11565b8281036040840152611f978186611d11565b91505082606083015295945050505050565b60008060008060808587031215611fbf57600080fd5b843567ffffffffffffffff80821115611fd757600080fd5b611fe388838901611e64565b95506020870135915080821115611ff957600080fd5b5061200687828801611e64565b949794965050505060408301359260600135919050565b6040810161202b8285611f3c565b82151560208301529392505050565b60008060006060848603121561204f57600080fd5b83359250602084013567ffffffffffffffff8082111561206e57600080fd5b61207a87838801611e64565b9350604086013591508082111561209057600080fd5b5061209d86828701611e64565b9150509250925092565b600080604083850312156120ba57600080fd5b82359150602083013580151581146120d157600080fd5b809150509250929050565b60c0815260006120ef60c0830189611d11565b82810360208401526121018189611d11565b9150506121116040830187611f3c565b84606083015283608083015282151560a0830152979650505050505050565b60208082526010908201526f24b73b30b634b21032b632b1ba34b7b760811b604082015260600190565b634e487b7160e01b600052601160045260246000fd5b6000600182016121825761218261215a565b5060010190565b600181811c9082168061219d57607f821691505b6020821081036121bd57634e487b7160e01b600052602260045260246000fd5b50919050565b6020808252600d908201526c13985b59481c995c5d5a5c9959609a1b604082015260600190565b601f82111561223457600081815260208120601f850160051c810160208610156122115750805b601f850160051c820191505b818110156122305782815560010161221d565b5050505b505050565b815167ffffffffffffffff81111561225357612253611e4e565b612267816122618454612189565b846121ea565b602080601f83116001811461229c57600084156122845750858301515b600019600386901b1c1916600185901b178555612230565b600085815260208120601f198616915b828110156122cb578886015182559484019460019091019084016122ac565b50858210156122e95787850151600019600388901b60f8161c191681555b5050505050600190811b01905550565b60808152600061230c6080830187611d11565b60208301959095525060408101929092526001600160a01b0316606090910152919050565b634e487b7160e01b600052603260045260246000fd5b60008251612359818460208701611ced565b9190910192915050565b6bffffffffffffffffffffffff198560601b1681526000845161238d816014850160208901611ced565b909101601481019390935250603482015260540192915050565b6040815260006123ba6040830185611d11565b82810360208401526123cc8185611d11565b95945050505050565b600083516123e7818460208801611ced565b60609390931b6bffffffffffffffffffffffff19169190920190815260140192915050565b600060ff821660ff81036124225761242261215a565b6001019291505056fea2646970667358221220e6b13f3e2daa8077bea7c3233e3f7d928ced1b47729e09230e666639cb4c456764736f6c63430008130033",
  "immutableReferences": {},
  "source": "// SPDX-License-Identifier: MIT\npragma solidity ^0.8.19;\n\n// Ultra Simple Voting System - Compatible dengan Truffle deployment\ncontract VotingSystem {\n    \n    // Simple owner management\n    address public owner;\n    \n    // Optional Oracle (can be set later)\n    address public nikOracle;\n    \n    // Reentrancy protection\n    bool private locked;\n    modifier noReentrant() {\n        require(!locked, \"Reentrant call\");\n        locked = true;\n        _;\n        locked = false;\n    }\n    \n    modifier onlyOwner() {\n        require(msg.sender == owner, \"Only owner\");\n        _;\n    }\n    \n    // Enum untuk status voter\n    enum VoterStatus { \n        NotRegistered,        // 0\n        PendingVerification,  // 1  \n        Registered,           // 2\n        Voted                 // 3\n    }\n    \n    // Struct untuk Election\n    struct Election {\n        uint256 id;\n        string name;\n        string description;\n        uint256 startTime;\n        uint256 endTime;\n        uint256 candidateCount;\n        uint256 totalVotes;\n        bool active;\n        address creator;\n    }\n\n    // Struct untuk Candidate\n    struct Candidate {\n        uint256 id;\n        uint256 electionId;\n        string name;\n        string details;\n        uint256 voteCount;\n    }\n\n    // Struct untuk Voter\n    struct Voter {\n        string name;\n        string nikHash;\n        VoterStatus status;\n        uint256 votedFor;\n        uint256 timestamp;\n        bool nikVerified;\n    }\n\n    // State variables\n    uint256 public electionCount;\n    uint256 private candidateCount;\n\n    // Mappings\n    mapping(uint256 => Election) public elections;\n    mapping(uint256 => Candidate) public candidates;\n    mapping(uint256 => uint256[]) public electionCandidates;\n    mapping(uint256 => mapping(address => Voter)) public electionVoters;\n    mapping(string => bool) public usedNIKHashes;\n\n    // Events\n    event OwnershipTransferred(address indexed previousOwner, address indexed newOwner);\n    event ElectionCreated(uint256 indexed electionId, string name, uint256 startTime, uint256 endTime, address creator);\n    event CandidateAdded(uint256 indexed electionId, uint256 indexed candidateId, string name, string details);\n    event VoterRegistrationRequested(uint256 indexed electionId, address indexed voter, bytes32 requestId);\n    event VoterVerified(uint256 indexed electionId, address indexed voter, bool verified);\n    event VoteSubmitted(uint256 indexed electionId, uint256 indexed candidateId, address indexed voter);\n    event ElectionStatusChanged(uint256 indexed electionId, bool active);\n\n    // Fixed constructor - no parameters, simple initialization\n    constructor() {\n        owner = msg.sender;\n        electionCount = 0;\n        candidateCount = 0;\n        locked = false;\n        emit OwnershipTransferred(address(0), msg.sender);\n    }\n\n    // Set Oracle address after deployment\n    function setOracleAddress(address _oracleAddress) external onlyOwner {\n        nikOracle = _oracleAddress;\n    }\n\n    // Ownership functions\n    function transferOwnership(address newOwner) external onlyOwner {\n        require(newOwner != address(0), \"Invalid address\");\n        emit OwnershipTransferred(owner, newOwner);\n        owner = newOwner;\n    }\n\n    // Create new election\n    function createElection(\n        string memory _name,\n        string memory _description,\n        uint256 _startTime,\n        uint256 _endTime\n    ) external returns (uint256) {\n        require(_startTime < _endTime, \"Invalid time range\");\n        require(_endTime > block.timestamp, \"End time in past\");\n        require(bytes(_name).length > 0, \"Name required\");\n\n        electionCount++;\n        uint256 electionId = electionCount;\n\n        Election storage newElection = elections[electionId];\n        newElection.id = electionId;\n        newElection.name = _name;\n        newElection.description = _description;\n        newElection.startTime = _startTime;\n        newElection.endTime = _endTime;\n        newElection.candidateCount = 0;\n        newElection.totalVotes = 0;\n        newElection.active = true;\n        newElection.creator = msg.sender;\n\n        emit ElectionCreated(electionId, _name, _startTime, _endTime, msg.sender);\n        return electionId;\n    }\n\n    // Add candidate to election\n    function addCandidate(\n        uint256 _electionId,\n        string memory _name,\n        string memory _details\n    ) external {\n        require(_electionId > 0 && _electionId <= electionCount, \"Invalid election\");\n        require(elections[_electionId].creator == msg.sender, \"Only creator\");\n        require(block.timestamp < elections[_electionId].startTime, \"Election started\");\n        require(bytes(_name).length > 0, \"Name required\");\n\n        candidateCount++;\n        uint256 candidateId = candidateCount;\n\n        Candidate storage newCandidate = candidates[candidateId];\n        newCandidate.id = candidateId;\n        newCandidate.electionId = _electionId;\n        newCandidate.name = _name;\n        newCandidate.details = _details;\n        newCandidate.voteCount = 0;\n\n        elections[_electionId].candidateCount++;\n        electionCandidates[_electionId].push(candidateId);\n\n        emit CandidateAdded(_electionId, candidateId, _name, _details);\n    }\n\n    // Register voter (simplified - auto verify for demo)\n    function registerVoter(\n        uint256 _electionId,\n        string memory _name,\n        string memory _nik\n    ) external noReentrant {\n        require(_electionId > 0 && _electionId <= electionCount, \"Invalid election\");\n        require(bytes(_name).length > 0, \"Name required\");\n        require(bytes(_nik).length == 16, \"NIK must be 16 digits\");\n        require(electionVoters[_electionId][msg.sender].status == VoterStatus.NotRegistered, \"Already registered\");\n\n        // Validate NIK is numeric\n        bytes memory nikBytes = bytes(_nik);\n        for (uint i = 0; i < nikBytes.length; i++) {\n            require(nikBytes[i] >= 0x30 && nikBytes[i] <= 0x39, \"NIK must be numeric\");\n        }\n\n        // Create NIK hash\n        string memory nikHash = _createNIKHash(_nik, msg.sender);\n        require(!usedNIKHashes[nikHash], \"NIK already used\");\n\n        usedNIKHashes[nikHash] = true;\n\n        // Create request ID\n        bytes32 requestId = keccak256(abi.encodePacked(msg.sender, _nik, block.timestamp, block.number));\n\n        // Auto-verify for demo (skip Oracle)\n        Voter storage newVoter = electionVoters[_electionId][msg.sender];\n        newVoter.name = _name;\n        newVoter.nikHash = nikHash;\n        newVoter.status = VoterStatus.Registered; // Skip verification step\n        newVoter.votedFor = 0;\n        newVoter.timestamp = 0;\n        newVoter.nikVerified = true;\n\n        emit VoterRegistrationRequested(_electionId, msg.sender, requestId);\n        emit VoterVerified(_electionId, msg.sender, true);\n    }\n\n    // Helper function to create NIK hash\n    function _createNIKHash(string memory _nik, address _sender) private pure returns (string memory) {\n        bytes32 hash = keccak256(abi.encodePacked(_nik, _sender));\n        return _bytes32ToString(hash);\n    }\n\n    // Helper function to convert bytes32 to string\n    function _bytes32ToString(bytes32 _bytes32) private pure returns (string memory) {\n        uint8 i = 0;\n        while(i < 32 && _bytes32[i] != 0) {\n            i++;\n        }\n        bytes memory bytesArray = new bytes(i);\n        for (i = 0; i < 32 && _bytes32[i] != 0; i++) {\n            bytesArray[i] = _bytes32[i];\n        }\n        return string(bytesArray);\n    }\n\n    // Cast vote\n    function castVote(uint256 _electionId, uint256 _candidateId) external noReentrant {\n        require(_electionId > 0 && _electionId <= electionCount, \"Invalid election\");\n        \n        Election storage election = elections[_electionId];\n        require(election.active, \"Election not active\");\n        require(block.timestamp >= election.startTime, \"Not started\");\n        require(block.timestamp <= election.endTime, \"Ended\");\n        \n        Voter storage voter = electionVoters[_electionId][msg.sender];\n        require(voter.status == VoterStatus.Registered, \"Not registered\");\n        require(voter.nikVerified, \"Not verified\");\n        require(_candidateId > 0 && candidates[_candidateId].electionId == _electionId, \"Invalid candidate\");\n\n        voter.status = VoterStatus.Voted;\n        voter.votedFor = _candidateId;\n        voter.timestamp = block.timestamp;\n\n        candidates[_candidateId].voteCount++;\n        election.totalVotes++;\n\n        emit VoteSubmitted(_electionId, _candidateId, msg.sender);\n    }\n\n    // View functions\n    function getVoterStatus(uint256 _electionId, address _voter) \n        external \n        view \n        returns (VoterStatus, bool) \n    {\n        require(_electionId > 0 && _electionId <= electionCount, \"Invalid election\");\n        Voter memory voter = electionVoters[_electionId][_voter];\n        return (voter.status, voter.nikVerified);\n    }\n\n    function getElectionCandidates(uint256 _electionId) \n        external \n        view \n        returns (uint256[] memory) \n    {\n        require(_electionId > 0 && _electionId <= electionCount, \"Invalid election\");\n        return electionCandidates[_electionId];\n    }\n\n    function getCandidateInfo(uint256 _candidateId) \n        external \n        view \n        returns (uint256, string memory, string memory, uint256) \n    {\n        require(_candidateId > 0 && _candidateId <= candidateCount, \"Invalid candidate\");\n        Candidate memory candidate = candidates[_candidateId];\n        return (candidate.id, candidate.name, candidate.details, candidate.voteCount);\n    }\n\n    function isElectionActive(uint256 _electionId) \n        external \n        view \n        returns (bool) \n    {\n        require(_electionId > 0 && _electionId <= electionCount, \"Invalid election\");\n        return elections[_electionId].active;\n    }\n\n    function getUserVote(uint256 _electionId, address _voter) \n        external \n        view \n        returns (uint256) \n    {\n        require(_electionId > 0 && _electionId <= electionCount, \"Invalid election\");\n        require(electionVoters[_electionId][_voter].status == VoterStatus.Voted, \"Not voted\");\n        return electionVoters[_electionId][_voter].votedFor;\n    }\n\n    function getUserVoteTimestamp(uint256 _electionId, address _voter) \n        external \n        view \n        returns (uint256) \n    {\n        require(_electionId > 0 && _electionId <= electionCount, \"Invalid election\");\n        require(electionVoters[_electionId][_voter].status == VoterStatus.Voted, \"Not voted\");\n        return electionVoters[_electionId][_voter].timestamp;\n    }\n\n    // Admin functions\n    function setElectionStatus(uint256 _electionId, bool _active) external {\n        require(_electionId > 0 && _electionId <= electionCount, \"Invalid election\");\n        require(elections[_electionId].creator == msg.sender, \"Only creator\");\n        \n        elections[_electionId].active = _active;\n        emit ElectionStatusChanged(_electionId, _active);\n    }\n\n    // Backward compatibility\n    function voterStatus(uint256 _electionId, address _voter) \n        external \n        view \n        returns (VoterStatus) \n    {\n        require(_electionId > 0 && _electionId <= electionCount, \"Invalid election\");\n        return electionVoters[_electionId][_voter].status;\n    }\n}",
  "sourcePath": "/home/sophie/blockchain-project/voting-system/contracts/VotingSystem.sol",
  "compiler": {
    "name": "solc",
    "version": "0.8.19+commit.7dd6d404.Emscripten.clang"
  },
  "schemaVersion": "3.4.16",
  "updatedAt": "2025-06-01T03:07:23.739Z",
  "devdoc": {
    "kind": "dev",
    "methods": {},
    "version": 1
  },
  "userdoc": {
    "kind": "user",
    "methods": {},
    "version": 1
  }
}