{
  "contractName": "VotingSystemFixed",
  "abi": [
    {
      "inputs": [],
      "stateMutability": "nonpayable",
      "type": "constructor"
    },
    {
      "anonymous": false,
      "inputs": [
        {
          "indexed": true,
          "internalType": "uint256",
          "name": "electionId",
          "type": "uint256"
        },
        {
          "indexed": true,
          "internalType": "uint256",
          "name": "candidateId",
          "type": "uint256"
        },
        {
          "indexed": false,
          "internalType": "string",
          "name": "name",
          "type": "string"
        },
        {
          "indexed": false,
          "internalType": "string",
          "name": "details",
          "type": "string"
        }
      ],
      "name": "CandidateAdded",
      "type": "event"
    },
    {
      "anonymous": false,
      "inputs": [
        {
          "indexed": true,
          "internalType": "uint256",
          "name": "electionId",
          "type": "uint256"
        },
        {
          "indexed": false,
          "internalType": "string",
          "name": "name",
          "type": "string"
        },
        {
          "indexed": false,
          "internalType": "uint256",
          "name": "startTime",
          "type": "uint256"
        },
        {
          "indexed": false,
          "internalType": "uint256",
          "name": "endTime",
          "type": "uint256"
        },
        {
          "indexed": false,
          "internalType": "address",
          "name": "creator",
          "type": "address"
        }
      ],
      "name": "ElectionCreated",
      "type": "event"
    },
    {
      "anonymous": false,
      "inputs": [
        {
          "indexed": true,
          "internalType": "uint256",
          "name": "electionId",
          "type": "uint256"
        },
        {
          "indexed": false,
          "internalType": "bool",
          "name": "active",
          "type": "bool"
        }
      ],
      "name": "ElectionStatusChanged",
      "type": "event"
    },
    {
      "anonymous": false,
      "inputs": [
        {
          "indexed": true,
          "internalType": "address",
          "name": "previousOwner",
          "type": "address"
        },
        {
          "indexed": true,
          "internalType": "address",
          "name": "newOwner",
          "type": "address"
        }
      ],
      "name": "OwnershipTransferred",
      "type": "event"
    },
    {
      "anonymous": false,
      "inputs": [
        {
          "indexed": true,
          "internalType": "uint256",
          "name": "electionId",
          "type": "uint256"
        },
        {
          "indexed": true,
          "internalType": "uint256",
          "name": "candidateId",
          "type": "uint256"
        },
        {
          "indexed": true,
          "internalType": "address",
          "name": "voter",
          "type": "address"
        },
        {
          "indexed": false,
          "internalType": "uint256",
          "name": "timestamp",
          "type": "uint256"
        }
      ],
      "name": "VoteSubmitted",
      "type": "event"
    },
    {
      "anonymous": false,
      "inputs": [
        {
          "indexed": true,
          "internalType": "uint256",
          "name": "electionId",
          "type": "uint256"
        },
        {
          "indexed": true,
          "internalType": "address",
          "name": "voter",
          "type": "address"
        },
        {
          "indexed": false,
          "internalType": "bytes32",
          "name": "requestId",
          "type": "bytes32"
        }
      ],
      "name": "VoterRegistrationRequested",
      "type": "event"
    },
    {
      "anonymous": false,
      "inputs": [
        {
          "indexed": true,
          "internalType": "uint256",
          "name": "electionId",
          "type": "uint256"
        },
        {
          "indexed": true,
          "internalType": "address",
          "name": "voter",
          "type": "address"
        },
        {
          "indexed": false,
          "internalType": "bool",
          "name": "verified",
          "type": "bool"
        }
      ],
      "name": "VoterVerified",
      "type": "event"
    },
    {
      "inputs": [
        {
          "internalType": "uint256",
          "name": "",
          "type": "uint256"
        }
      ],
      "name": "candidates",
      "outputs": [
        {
          "internalType": "uint256",
          "name": "id",
          "type": "uint256"
        },
        {
          "internalType": "uint256",
          "name": "electionId",
          "type": "uint256"
        },
        {
          "internalType": "string",
          "name": "name",
          "type": "string"
        },
        {
          "internalType": "string",
          "name": "details",
          "type": "string"
        },
        {
          "internalType": "uint256",
          "name": "voteCount",
          "type": "uint256"
        },
        {
          "internalType": "bool",
          "name": "exists",
          "type": "bool"
        }
      ],
      "stateMutability": "view",
      "type": "function"
    },
    {
      "inputs": [
        {
          "internalType": "uint256",
          "name": "",
          "type": "uint256"
        },
        {
          "internalType": "uint256",
          "name": "",
          "type": "uint256"
        }
      ],
      "name": "electionCandidates",
      "outputs": [
        {
          "internalType": "uint256",
          "name": "",
          "type": "uint256"
        }
      ],
      "stateMutability": "view",
      "type": "function"
    },
    {
      "inputs": [],
      "name": "electionCount",
      "outputs": [
        {
          "internalType": "uint256",
          "name": "",
          "type": "uint256"
        }
      ],
      "stateMutability": "view",
      "type": "function"
    },
    {
      "inputs": [
        {
          "internalType": "uint256",
          "name": "",
          "type": "uint256"
        },
        {
          "internalType": "address",
          "name": "",
          "type": "address"
        }
      ],
      "name": "electionVoters",
      "outputs": [
        {
          "internalType": "string",
          "name": "name",
          "type": "string"
        },
        {
          "internalType": "string",
          "name": "nikHash",
          "type": "string"
        },
        {
          "internalType": "enum VotingSystemFixed.VoterStatus",
          "name": "status",
          "type": "uint8"
        },
        {
          "internalType": "uint256",
          "name": "votedFor",
          "type": "uint256"
        },
        {
          "internalType": "uint256",
          "name": "voteTimestamp",
          "type": "uint256"
        },
        {
          "internalType": "bool",
          "name": "nikVerified",
          "type": "bool"
        },
        {
          "internalType": "bool",
          "name": "exists",
          "type": "bool"
        }
      ],
      "stateMutability": "view",
      "type": "function"
    },
    {
      "inputs": [
        {
          "internalType": "uint256",
          "name": "",
          "type": "uint256"
        }
      ],
      "name": "elections",
      "outputs": [
        {
          "internalType": "uint256",
          "name": "id",
          "type": "uint256"
        },
        {
          "internalType": "string",
          "name": "name",
          "type": "string"
        },
        {
          "internalType": "string",
          "name": "description",
          "type": "string"
        },
        {
          "internalType": "uint256",
          "name": "startTime",
          "type": "uint256"
        },
        {
          "internalType": "uint256",
          "name": "endTime",
          "type": "uint256"
        },
        {
          "internalType": "uint256",
          "name": "candidateCount",
          "type": "uint256"
        },
        {
          "internalType": "uint256",
          "name": "totalVotes",
          "type": "uint256"
        },
        {
          "internalType": "bool",
          "name": "active",
          "type": "bool"
        },
        {
          "internalType": "address",
          "name": "creator",
          "type": "address"
        },
        {
          "internalType": "bool",
          "name": "exists",
          "type": "bool"
        }
      ],
      "stateMutability": "view",
      "type": "function"
    },
    {
      "inputs": [],
      "name": "nikOracle",
      "outputs": [
        {
          "internalType": "address",
          "name": "",
          "type": "address"
        }
      ],
      "stateMutability": "view",
      "type": "function"
    },
    {
      "inputs": [],
      "name": "owner",
      "outputs": [
        {
          "internalType": "address",
          "name": "",
          "type": "address"
        }
      ],
      "stateMutability": "view",
      "type": "function"
    },
    {
      "inputs": [
        {
          "internalType": "string",
          "name": "",
          "type": "string"
        }
      ],
      "name": "usedNIKHashes",
      "outputs": [
        {
          "internalType": "bool",
          "name": "",
          "type": "bool"
        }
      ],
      "stateMutability": "view",
      "type": "function"
    },
    {
      "inputs": [
        {
          "internalType": "address",
          "name": "_oracleAddress",
          "type": "address"
        }
      ],
      "name": "setOracleAddress",
      "outputs": [],
      "stateMutability": "nonpayable",
      "type": "function"
    },
    {
      "inputs": [
        {
          "internalType": "address",
          "name": "newOwner",
          "type": "address"
        }
      ],
      "name": "transferOwnership",
      "outputs": [],
      "stateMutability": "nonpayable",
      "type": "function"
    },
    {
      "inputs": [
        {
          "internalType": "string",
          "name": "_name",
          "type": "string"
        },
        {
          "internalType": "string",
          "name": "_description",
          "type": "string"
        },
        {
          "internalType": "uint256",
          "name": "_startTime",
          "type": "uint256"
        },
        {
          "internalType": "uint256",
          "name": "_endTime",
          "type": "uint256"
        }
      ],
      "name": "createElection",
      "outputs": [
        {
          "internalType": "uint256",
          "name": "",
          "type": "uint256"
        }
      ],
      "stateMutability": "nonpayable",
      "type": "function"
    },
    {
      "inputs": [
        {
          "internalType": "uint256",
          "name": "_electionId",
          "type": "uint256"
        },
        {
          "internalType": "string",
          "name": "_name",
          "type": "string"
        },
        {
          "internalType": "string",
          "name": "_details",
          "type": "string"
        }
      ],
      "name": "addCandidate",
      "outputs": [],
      "stateMutability": "nonpayable",
      "type": "function"
    },
    {
      "inputs": [
        {
          "internalType": "uint256",
          "name": "_electionId",
          "type": "uint256"
        },
        {
          "internalType": "string",
          "name": "_name",
          "type": "string"
        },
        {
          "internalType": "string",
          "name": "_nik",
          "type": "string"
        }
      ],
      "name": "registerVoter",
      "outputs": [],
      "stateMutability": "nonpayable",
      "type": "function"
    },
    {
      "inputs": [
        {
          "internalType": "uint256",
          "name": "_electionId",
          "type": "uint256"
        },
        {
          "internalType": "uint256",
          "name": "_candidateId",
          "type": "uint256"
        }
      ],
      "name": "castVote",
      "outputs": [],
      "stateMutability": "nonpayable",
      "type": "function"
    },
    {
      "inputs": [
        {
          "internalType": "uint256",
          "name": "_electionId",
          "type": "uint256"
        },
        {
          "internalType": "address",
          "name": "_voter",
          "type": "address"
        }
      ],
      "name": "voterStatus",
      "outputs": [
        {
          "internalType": "enum VotingSystemFixed.VoterStatus",
          "name": "",
          "type": "uint8"
        }
      ],
      "stateMutability": "view",
      "type": "function"
    },
    {
      "inputs": [
        {
          "internalType": "uint256",
          "name": "_electionId",
          "type": "uint256"
        },
        {
          "internalType": "address",
          "name": "_voter",
          "type": "address"
        }
      ],
      "name": "getVoterStatus",
      "outputs": [
        {
          "internalType": "enum VotingSystemFixed.VoterStatus",
          "name": "status",
          "type": "uint8"
        },
        {
          "internalType": "bool",
          "name": "verified",
          "type": "bool"
        }
      ],
      "stateMutability": "view",
      "type": "function"
    },
    {
      "inputs": [
        {
          "internalType": "uint256",
          "name": "_electionId",
          "type": "uint256"
        },
        {
          "internalType": "address",
          "name": "_voter",
          "type": "address"
        }
      ],
      "name": "getUserVote",
      "outputs": [
        {
          "internalType": "uint256",
          "name": "",
          "type": "uint256"
        }
      ],
      "stateMutability": "view",
      "type": "function"
    },
    {
      "inputs": [
        {
          "internalType": "uint256",
          "name": "_electionId",
          "type": "uint256"
        },
        {
          "internalType": "address",
          "name": "_voter",
          "type": "address"
        }
      ],
      "name": "getUserVoteTimestamp",
      "outputs": [
        {
          "internalType": "uint256",
          "name": "",
          "type": "uint256"
        }
      ],
      "stateMutability": "view",
      "type": "function"
    },
    {
      "inputs": [
        {
          "internalType": "uint256",
          "name": "_electionId",
          "type": "uint256"
        },
        {
          "internalType": "address",
          "name": "_voter",
          "type": "address"
        }
      ],
      "name": "getVoterInfo",
      "outputs": [
        {
          "internalType": "string",
          "name": "name",
          "type": "string"
        },
        {
          "internalType": "enum VotingSystemFixed.VoterStatus",
          "name": "status",
          "type": "uint8"
        },
        {
          "internalType": "bool",
          "name": "nikVerified",
          "type": "bool"
        },
        {
          "internalType": "uint256",
          "name": "votedFor",
          "type": "uint256"
        },
        {
          "internalType": "uint256",
          "name": "voteTimestamp",
          "type": "uint256"
        },
        {
          "internalType": "bool",
          "name": "exists",
          "type": "bool"
        }
      ],
      "stateMutability": "view",
      "type": "function"
    },
    {
      "inputs": [
        {
          "internalType": "uint256",
          "name": "_electionId",
          "type": "uint256"
        }
      ],
      "name": "getElectionCandidates",
      "outputs": [
        {
          "internalType": "uint256[]",
          "name": "",
          "type": "uint256[]"
        }
      ],
      "stateMutability": "view",
      "type": "function"
    },
    {
      "inputs": [
        {
          "internalType": "uint256",
          "name": "_candidateId",
          "type": "uint256"
        }
      ],
      "name": "getCandidateInfo",
      "outputs": [
        {
          "internalType": "uint256",
          "name": "",
          "type": "uint256"
        },
        {
          "internalType": "string",
          "name": "",
          "type": "string"
        },
        {
          "internalType": "string",
          "name": "",
          "type": "string"
        },
        {
          "internalType": "uint256",
          "name": "",
          "type": "uint256"
        }
      ],
      "stateMutability": "view",
      "type": "function"
    },
    {
      "inputs": [
        {
          "internalType": "uint256",
          "name": "_electionId",
          "type": "uint256"
        }
      ],
      "name": "isElectionActive",
      "outputs": [
        {
          "internalType": "bool",
          "name": "",
          "type": "bool"
        }
      ],
      "stateMutability": "view",
      "type": "function"
    },
    {
      "inputs": [
        {
          "internalType": "uint256",
          "name": "_electionId",
          "type": "uint256"
        },
        {
          "internalType": "bool",
          "name": "_active",
          "type": "bool"
        }
      ],
      "name": "setElectionStatus",
      "outputs": [],
      "stateMutability": "nonpayable",
      "type": "function"
    },
    {
      "inputs": [
        {
          "internalType": "uint256",
          "name": "_electionId",
          "type": "uint256"
        },
        {
          "internalType": "address",
          "name": "_voter",
          "type": "address"
        }
      ],
      "name": "checkVoterConsistency",
      "outputs": [
        {
          "internalType": "bool",
          "name": "isConsistent",
          "type": "bool"
        },
        {
          "internalType": "string",
          "name": "issues",
          "type": "string"
        }
      ],
      "stateMutability": "view",
      "type": "function"
    }
  ],
  "bytecode": "0x608060405234801561001057600080fd5b50600080546001600160a01b031916339081178255600282905560038290556001805460ff60a01b191690556040519091907f8be0079c531659141344cd1fd0a4f28419497f9722a3daafe3b4186f6b6457e0908290a36133d2806100766000396000f3fe608060405234801561001057600080fd5b50600436106101585760003560e01c80638da5cb5b116100c3578063e6c62efc1161007c578063e6c62efc14610361578063ec33450914610374578063f2fde38b14610395578063f3d34f3a146103a8578063f5728fbe146103bb578063fbc759a1146103e157600080fd5b80638da5cb5b146102eb578063942f56bd146102fe578063997d28301461031f578063a42c56f714610328578063cd65a20a1461033b578063d5617ecf1461034e57600080fd5b80635e6fef01116101155780635e6fef011461021b57806368d59bc8146102445780636a14edfd146102825780636ee17f6f146102a257806370f67cfe146102b55780637ad36e84146102d857600080fd5b806303c7881a1461015d5780632c0a3f89146101835780633477ee2e146101985780633d0b4a6e146101bd5780634c69c00f146101e85780635e12845e146101fb575b600080fd5b61017061016b3660046129fc565b610406565b6040519081526020015b60405180910390f35b610196610191366004612a28565b6106f5565b005b6101ab6101a6366004612a4a565b610b7f565b60405161017a96959493929190612ab3565b6001546101d0906001600160a01b031681565b6040516001600160a01b03909116815260200161017a565b6101966101f6366004612aff565b610cc8565b61020e610209366004612a4a565b610d31565b60405161017a9190612b21565b61022e610229366004612a4a565b610dfc565b60405161017a9a99989796959493929190612b65565b610272610252366004612c7e565b805160208183018101805160088252928201919093012091525460ff1681565b604051901515815260200161017a565b6102956102903660046129fc565b610f6c565b60405161017a9190612cf3565b6102726102b0366004612a4a565b611005565b6102c86102c3366004612a4a565b611088565b60405161017a9493929190612d07565b6101706102e6366004612d44565b6112d6565b6000546101d0906001600160a01b031681565b61031161030c3660046129fc565b611459565b60405161017a929190612db8565b61017060025481565b610170610336366004612a28565b611694565b610196610349366004612dd5565b6116c5565b61019661035c366004612e42565b611b0b565b61019661036f366004612dd5565b611c2a565b6103876103823660046129fc565b611e51565b60405161017a929190612e77565b6101966103a3366004612aff565b61224d565b6101706103b63660046129fc565b612337565b6103ce6103c93660046129fc565b612622565b60405161017a9796959493929190612e92565b6103f46103ef3660046129fc565b612781565b60405161017a96959493929190612eee565b60008260008111801561041b57506002548111155b6104405760405162461bcd60e51b815260040161043790612f36565b60405180910390fd5b600081815260046020526040902060070154600160a81b900460ff166104785760405162461bcd60e51b815260040161043790612f63565b60008481526007602090815260408083206001600160a01b0387168452909152808220815160e081019092528054829082906104b390612f9a565b80601f01602080910402602001604051908101604052809291908181526020018280546104df90612f9a565b801561052c5780601f106105015761010080835404028352916020019161052c565b820191906000526020600020905b81548152906001019060200180831161050f57829003601f168201915b5050505050815260200160018201805461054590612f9a565b80601f016020809104026020016040519081016040528092919081815260200182805461057190612f9a565b80156105be5780601f10610593576101008083540402835291602001916105be565b820191906000526020600020905b8154815290600101906020018083116105a157829003601f168201915b5050509183525050600282015460209091019060ff1660038111156105e5576105e5612cbb565b60038111156105f6576105f6612cbb565b8152600382015460208201526004820154604082015260059091015460ff8082161515606084015261010090910416151560809091015260c08101519091506106515760405162461bcd60e51b815260040161043790612fce565b60038160400151600381111561066957610669612cbb565b146106a25760405162461bcd60e51b8152602060048201526009602482015268139bdd081d9bdd195960ba1b6044820152606401610437565b80606001516000036106e95760405162461bcd60e51b815260206004820152601060248201526f139bc81d9bdd19481c9958dbdc99195960821b6044820152606401610437565b60600151949350505050565b600154600160a01b900460ff16156107405760405162461bcd60e51b815260206004820152600e60248201526d1499595b9d1c985b9d0818d85b1b60921b6044820152606401610437565b6001805460ff60a01b1916600160a01b17905581801580159061076557506002548111155b6107815760405162461bcd60e51b815260040161043790612f36565b600081815260046020526040902060070154600160a81b900460ff166107b95760405162461bcd60e51b815260040161043790612f63565b816000811180156107cc57506003548111155b61080f5760405162461bcd60e51b8152602060048201526014602482015273125b9d985b1a590818d85b991a59185d1948125160621b6044820152606401610437565b6000818152600560208190526040909120015460ff1661086c5760405162461bcd60e51b815260206004820152601860248201527710d85b991a59185d1948191bd95cc81b9bdd08195e1a5cdd60421b6044820152606401610437565b600084815260076020908152604080832033808552925290912060050154859190610100900460ff166108b15760405162461bcd60e51b815260040161043790612fce565b6000868152600460209081526040808320600780845282852033865284528285208a86526005909452919093209083015460ff166109275760405162461bcd60e51b8152602060048201526013602482015272456c656374696f6e206e6f742061637469766560681b6044820152606401610437565b82600301544210156109695760405162461bcd60e51b815260206004820152600b60248201526a139bdd081cdd185c9d195960aa1b6044820152606401610437565b82600401544211156109a55760405162461bcd60e51b8152602060048201526005602482015264115b99195960da1b6044820152606401610437565b60028083015460ff1660038111156109bf576109bf612cbb565b146109fd5760405162461bcd60e51b815260206004820152600e60248201526d139bdd081c9959da5cdd195c995960921b6044820152606401610437565b600582015460ff16610a405760405162461bcd60e51b815260206004820152600c60248201526b139bdd081d995c9a599a595960a21b6044820152606401610437565b600382015415610a825760405162461bcd60e51b815260206004820152600d60248201526c105b1c9958591e481d9bdd1959609a1b6044820152606401610437565b88816001015414610ad55760405162461bcd60e51b815260206004820152601e60248201527f43616e646964617465206e6f7420696e207468697320656c656374696f6e00006044820152606401610437565b60028201805460ff19166003908117909155820188905542600480840182905582018054906000610b0583612ffc565b9091555050600684018054906000610b1c83612ffc565b9190505550336001600160a01b0316898b7fcca507442fbf43634aad35a819ef42a5d05389a9304ea7ab3bf339483ab4514584604051610b5e91815260200190565b60405180910390a450506001805460ff60a01b191690555050505050505050565b60056020526000908152604090208054600182015460028301805492939192610ba790612f9a565b80601f0160208091040260200160405190810160405280929190818152602001828054610bd390612f9a565b8015610c205780601f10610bf557610100808354040283529160200191610c20565b820191906000526020600020905b815481529060010190602001808311610c0357829003601f168201915b505050505090806003018054610c3590612f9a565b80601f0160208091040260200160405190810160405280929190818152602001828054610c6190612f9a565b8015610cae5780601f10610c8357610100808354040283529160200191610cae565b820191906000526020600020905b815481529060010190602001808311610c9157829003601f168201915b50505050600483015460059093015491929160ff16905086565b6000546001600160a01b03163314610d0f5760405162461bcd60e51b815260206004820152600a60248201526927b7363c9037bbb732b960b11b6044820152606401610437565b600180546001600160a01b0319166001600160a01b0392909216919091179055565b606081600081118015610d4657506002548111155b610d625760405162461bcd60e51b815260040161043790612f36565b600081815260046020526040902060070154600160a81b900460ff16610d9a5760405162461bcd60e51b815260040161043790612f63565b60008381526006602090815260409182902080548351818402810184019094528084529091830182828015610dee57602002820191906000526020600020905b815481526020019060010190808311610dda575b505050505091505b50919050565b60046020526000908152604090208054600182018054919291610e1e90612f9a565b80601f0160208091040260200160405190810160405280929190818152602001828054610e4a90612f9a565b8015610e975780601f10610e6c57610100808354040283529160200191610e97565b820191906000526020600020905b815481529060010190602001808311610e7a57829003601f168201915b505050505090806002018054610eac90612f9a565b80601f0160208091040260200160405190810160405280929190818152602001828054610ed890612f9a565b8015610f255780601f10610efa57610100808354040283529160200191610f25565b820191906000526020600020905b815481529060010190602001808311610f0857829003601f168201915b505050600384015460048501546005860154600687015460079097015495969295919450925060ff808216916001600160a01b0361010082041691600160a81b909104168a565b600082600081118015610f8157506002548111155b610f9d5760405162461bcd60e51b815260040161043790612f36565b600081815260046020526040902060070154600160a81b900460ff16610fd55760405162461bcd60e51b815260040161043790612f63565b505060009182526007602090815260408084206001600160a01b0393909316845291905290206002015460ff1690565b60008160008111801561101a57506002548111155b6110365760405162461bcd60e51b815260040161043790612f36565b600081815260046020526040902060070154600160a81b900460ff1661106e5760405162461bcd60e51b815260040161043790612f63565b505060009081526004602052604090206007015460ff1690565b60006060806000846000811180156110a257506003548111155b6110e55760405162461bcd60e51b8152602060048201526014602482015273125b9d985b1a590818d85b991a59185d1948125160621b6044820152606401610437565b6000818152600560208190526040909120015460ff166111425760405162461bcd60e51b815260206004820152601860248201527710d85b991a59185d1948191bd95cc81b9bdd08195e1a5cdd60421b6044820152606401610437565b6000600560008881526020019081526020016000206040518060c0016040529081600082015481526020016001820154815260200160028201805461118690612f9a565b80601f01602080910402602001604051908101604052809291908181526020018280546111b290612f9a565b80156111ff5780601f106111d4576101008083540402835291602001916111ff565b820191906000526020600020905b8154815290600101906020018083116111e257829003601f168201915b5050505050815260200160038201805461121890612f9a565b80601f016020809104026020016040519081016040528092919081815260200182805461124490612f9a565b80156112915780601f1061126657610100808354040283529160200191611291565b820191906000526020600020905b81548152906001019060200180831161127457829003601f168201915b50505091835250506004820154602082015260059091015460ff1615156040918201528151908201516060830151608090930151919a90995091975095509350505050565b600081831061131c5760405162461bcd60e51b8152602060048201526012602482015271496e76616c69642074696d652072616e676560701b6044820152606401610437565b42821161135e5760405162461bcd60e51b815260206004820152601060248201526f115b99081d1a5b59481a5b881c185cdd60821b6044820152606401610437565b600085511161137f5760405162461bcd60e51b815260040161043790613023565b6002805490600061138f83612ffc565b90915550506002546000818152600460205260409020818155600181016113b68882613099565b50600281016113c58782613099565b506003810185905560048101849055600060058201819055600682015560078101805460ff60a81b193361010081026001600160a81b03199093169290921760011716600160a81b1790915560405183917f13ac008e0cdce4387b5f85e53dd6fd03c11f7170f920652af23fea832170559691611447918b918a918a91613159565b60405180910390a25095945050505050565b6000808360008111801561146f57506002548111155b61148b5760405162461bcd60e51b815260040161043790612f36565b600081815260046020526040902060070154600160a81b900460ff166114c35760405162461bcd60e51b815260040161043790612f63565b60008581526007602090815260408083206001600160a01b0388168452909152808220815160e081019092528054829082906114fe90612f9a565b80601f016020809104026020016040519081016040528092919081815260200182805461152a90612f9a565b80156115775780601f1061154c57610100808354040283529160200191611577565b820191906000526020600020905b81548152906001019060200180831161155a57829003601f168201915b5050505050815260200160018201805461159090612f9a565b80601f01602080910402602001604051908101604052809291908181526020018280546115bc90612f9a565b80156116095780601f106115de57610100808354040283529160200191611609565b820191906000526020600020905b8154815290600101906020018083116115ec57829003601f168201915b5050509183525050600282015460209091019060ff16600381111561163057611630612cbb565b600381111561164157611641612cbb565b815260038201546020820152600482015460408083019190915260059092015460ff8082161515606084015261010090910416151560809091015281015160a0909101519094509250505b509250929050565b600660205281600052604060002081815481106116b057600080fd5b90600052602060002001600091509150505481565b600154600160a01b900460ff16156117105760405162461bcd60e51b815260206004820152600e60248201526d1499595b9d1c985b9d0818d85b1b60921b6044820152606401610437565b6001805460ff60a01b1916600160a01b17905582801580159061173557506002548111155b6117515760405162461bcd60e51b815260040161043790612f36565b600081815260046020526040902060070154600160a81b900460ff166117895760405162461bcd60e51b815260040161043790612f63565b60008351116117aa5760405162461bcd60e51b815260040161043790613023565b81516010146117f35760405162461bcd60e51b81526020600482015260156024820152744e494b206d7573742062652031362064696769747360581b6044820152606401610437565b6000848152600760209081526040808320338452909152902060050154610100900460ff161561185a5760405162461bcd60e51b8152602060048201526012602482015271105b1c9958591e481c9959da5cdd195c995960721b6044820152606401610437565b8160005b815181101561191357603060f81b82828151811061187e5761187e613191565b01602001516001600160f81b031916108015906118bf5750603960f81b8282815181106118ad576118ad613191565b01602001516001600160f81b03191611155b6119015760405162461bcd60e51b81526020600482015260136024820152724e494b206d757374206265206e756d6572696360681b6044820152606401610437565b8061190b81612ffc565b91505061185e565b50600083336040516020016119299291906131a7565b60408051601f198184030181528282528051602091820120908301819052925060009101604051602081830303815290604052905060088160405161196e91906131de565b9081526040519081900360200190205460ff16156119c15760405162461bcd60e51b815260206004820152601060248201526f139252c8185b1c9958591e481d5cd95960821b6044820152606401610437565b60016008826040516119d391906131de565b90815260405160209181900382018120805460ff191693151593909317909255600091611a08913391899142914391016131fa565b60408051601f19818403018152918152815160209283012060008b815260078452828120338252909352912090915080611a428982613099565b5060018101611a518482613099565b506002818101805460ff19166001830217905550600060038201819055600482015560058101805461ffff191661010117905560405182815233908a907febc6f34d7a20e97ed705d05fdae55d5f7fe63e631655bb2c8b99743bd637a2af9060200160405180910390a36040516001815233908a907fccc3951f772a881f4af4f4b008f1073f1bbecde0390b722716931a1c2e0d47889060200160405180910390a350506001805460ff60a01b1916905550505050505050565b81600081118015611b1e57506002548111155b611b3a5760405162461bcd60e51b815260040161043790612f36565b600081815260046020526040902060070154600160a81b900460ff16611b725760405162461bcd60e51b815260040161043790612f63565b60008381526004602052604090206007015461010090046001600160a01b03163314611bcf5760405162461bcd60e51b815260206004820152600c60248201526b27b7363c9031b932b0ba37b960a11b6044820152606401610437565b600083815260046020908152604091829020600701805460ff1916851515908117909155915191825284917f550243ff1a84cc99f7f82bfd2e29380f33523ca72cde0783141c25ed8f4dede3910160405180910390a2505050565b82600081118015611c3d57506002548111155b611c595760405162461bcd60e51b815260040161043790612f36565b600081815260046020526040902060070154600160a81b900460ff16611c915760405162461bcd60e51b815260040161043790612f63565b60008481526004602052604090206007015461010090046001600160a01b03163314611cee5760405162461bcd60e51b815260206004820152600c60248201526b27b7363c9031b932b0ba37b960a11b6044820152606401610437565b6000848152600460205260409020600301544210611d415760405162461bcd60e51b815260206004820152601060248201526f115b1958dd1a5bdb881cdd185c9d195960821b6044820152606401610437565b6000835111611d625760405162461bcd60e51b815260040161043790613023565b60038054906000611d7283612ffc565b909155505060035460008181526005602052604090208181556001810186905560028101611da08682613099565b5060038101611daf8582613099565b50600060048083018290556005808401805460ff191660011790558883526020919091526040822001805491611de483612ffc565b909155505060008681526006602090815260408083208054600181018255908452919092200183905551829087907f503cfceb0fb2178c5fb47ff394c816e4075abc8066c3dcb16d08a76847ee6e1690611e41908990899061323e565b60405180910390a3505050505050565b6000606083600081118015611e6857506002548111155b611e845760405162461bcd60e51b815260040161043790612f36565b600081815260046020526040902060070154600160a81b900460ff16611ebc5760405162461bcd60e51b815260040161043790612f63565b60008581526007602090815260408083206001600160a01b0388168452909152808220815160e08101909252805482908290611ef790612f9a565b80601f0160208091040260200160405190810160405280929190818152602001828054611f2390612f9a565b8015611f705780601f10611f4557610100808354040283529160200191611f70565b820191906000526020600020905b815481529060010190602001808311611f5357829003601f168201915b50505050508152602001600182018054611f8990612f9a565b80601f0160208091040260200160405190810160405280929190818152602001828054611fb590612f9a565b80156120025780601f10611fd757610100808354040283529160200191612002565b820191906000526020600020905b815481529060010190602001808311611fe557829003601f168201915b5050509183525050600282015460209091019060ff16600381111561202957612029612cbb565b600381111561203a5761203a612cbb565b8152600382015460208201526004820154604082015260059091015460ff8082161515606084015261010090910416151560809091015260c08101519091506120a257600160405180606001604052806021815260200161337c60219139935093505061168c565b60408051602081019091526000815260016003836040015160038111156120cb576120cb612cbb565b1480156120da57506060830151155b1561210657816040516020016120f0919061326c565b6040516020818303038152906040529150600090505b60038360400151600381111561211e5761211e612cbb565b14801561212d57506080830151155b15612159578160405160200161214391906132ad565b6040516020818303038152906040529150600090505b606083015115801590612182575060038360400151600381111561217f5761217f612cbb565b14155b156121ae578160405160200161219891906132ee565b6040516020818303038152906040529150600090505b6060830151158015906121d9575060608301516000908152600560208190526040909120015460ff16155b1561220557816040516020016121ef919061332f565b6040516020818303038152906040529150600090505b8081612211578261223e565b60405180604001604052806013815260200172105b1b0819185d184818dbdb9cda5cdd195b9d606a1b8152505b95509550505050509250929050565b6000546001600160a01b031633146122945760405162461bcd60e51b815260206004820152600a60248201526927b7363c9037bbb732b960b11b6044820152606401610437565b6001600160a01b0381166122dc5760405162461bcd60e51b815260206004820152600f60248201526e496e76616c6964206164647265737360881b6044820152606401610437565b600080546040516001600160a01b03808516939216917f8be0079c531659141344cd1fd0a4f28419497f9722a3daafe3b4186f6b6457e091a3600080546001600160a01b0319166001600160a01b0392909216919091179055565b60008260008111801561234c57506002548111155b6123685760405162461bcd60e51b815260040161043790612f36565b600081815260046020526040902060070154600160a81b900460ff166123a05760405162461bcd60e51b815260040161043790612f63565b60008481526007602090815260408083206001600160a01b0387168452909152808220815160e081019092528054829082906123db90612f9a565b80601f016020809104026020016040519081016040528092919081815260200182805461240790612f9a565b80156124545780601f1061242957610100808354040283529160200191612454565b820191906000526020600020905b81548152906001019060200180831161243757829003601f168201915b5050505050815260200160018201805461246d90612f9a565b80601f016020809104026020016040519081016040528092919081815260200182805461249990612f9a565b80156124e65780601f106124bb576101008083540402835291602001916124e6565b820191906000526020600020905b8154815290600101906020018083116124c957829003601f168201915b5050509183525050600282015460209091019060ff16600381111561250d5761250d612cbb565b600381111561251e5761251e612cbb565b8152600382015460208201526004820154604082015260059091015460ff8082161515606084015261010090910416151560809091015260c08101519091506125795760405162461bcd60e51b815260040161043790612fce565b60038160400151600381111561259157612591612cbb565b146125ca5760405162461bcd60e51b8152602060048201526009602482015268139bdd081d9bdd195960ba1b6044820152606401610437565b80608001516000036126165760405162461bcd60e51b8152602060048201526015602482015274139bc81d1a5b595cdd185b5c081c9958dbdc991959605a1b6044820152606401610437565b60800151949350505050565b600760209081526000928352604080842090915290825290208054819061264890612f9a565b80601f016020809104026020016040519081016040528092919081815260200182805461267490612f9a565b80156126c15780601f10612696576101008083540402835291602001916126c1565b820191906000526020600020905b8154815290600101906020018083116126a457829003601f168201915b5050505050908060010180546126d690612f9a565b80601f016020809104026020016040519081016040528092919081815260200182805461270290612f9a565b801561274f5780601f106127245761010080835404028352916020019161274f565b820191906000526020600020905b81548152906001019060200180831161273257829003601f168201915b50505050600283015460038401546004850154600590950154939460ff92831694919350918082169161010090041687565b606060008060008060008760008111801561279e57506002548111155b6127ba5760405162461bcd60e51b815260040161043790612f36565b600081815260046020526040902060070154600160a81b900460ff166127f25760405162461bcd60e51b815260040161043790612f63565b60008981526007602090815260408083206001600160a01b038c168452909152808220815160e0810190925280548290829061282d90612f9a565b80601f016020809104026020016040519081016040528092919081815260200182805461285990612f9a565b80156128a65780601f1061287b576101008083540402835291602001916128a6565b820191906000526020600020905b81548152906001019060200180831161288957829003601f168201915b505050505081526020016001820180546128bf90612f9a565b80601f01602080910402602001604051908101604052809291908181526020018280546128eb90612f9a565b80156129385780601f1061290d57610100808354040283529160200191612938565b820191906000526020600020905b81548152906001019060200180831161291b57829003601f168201915b5050509183525050600282015460209091019060ff16600381111561295f5761295f612cbb565b600381111561297057612970612cbb565b815260038201546020820152600482015460408083019190915260059092015460ff808216151560608085019190915261010090920416151560809283015283519284015160a0850151918501519285015160c090950151939f909e50909c50909a509198509650945050505050565b80356001600160a01b03811681146129f757600080fd5b919050565b60008060408385031215612a0f57600080fd5b82359150612a1f602084016129e0565b90509250929050565b60008060408385031215612a3b57600080fd5b50508035926020909101359150565b600060208284031215612a5c57600080fd5b5035919050565b60005b83811015612a7e578181015183820152602001612a66565b50506000910152565b60008151808452612a9f816020860160208601612a63565b601f01601f19169290920160200192915050565b86815285602082015260c060408201526000612ad260c0830187612a87565b8281036060840152612ae48187612a87565b6080840195909552505090151560a090910152949350505050565b600060208284031215612b1157600080fd5b612b1a826129e0565b9392505050565b6020808252825182820181905260009190848201906040850190845b81811015612b5957835183529284019291840191600101612b3d565b50909695505050505050565b60006101408c8352806020840152612b7f8184018d612a87565b90508281036040840152612b93818c612a87565b606084019a909a525050608081019690965260a086019490945260c0850192909252151560e08401526001600160a01b03166101008301521515610120909101529392505050565b634e487b7160e01b600052604160045260246000fd5b600082601f830112612c0257600080fd5b813567ffffffffffffffff80821115612c1d57612c1d612bdb565b604051601f8301601f19908116603f01168101908282118183101715612c4557612c45612bdb565b81604052838152866020858801011115612c5e57600080fd5b836020870160208301376000602085830101528094505050505092915050565b600060208284031215612c9057600080fd5b813567ffffffffffffffff811115612ca757600080fd5b612cb384828501612bf1565b949350505050565b634e487b7160e01b600052602160045260246000fd5b60048110612cef57634e487b7160e01b600052602160045260246000fd5b9052565b60208101612d018284612cd1565b92915050565b848152608060208201526000612d206080830186612a87565b8281036040840152612d328186612a87565b91505082606083015295945050505050565b60008060008060808587031215612d5a57600080fd5b843567ffffffffffffffff80821115612d7257600080fd5b612d7e88838901612bf1565b95506020870135915080821115612d9457600080fd5b50612da187828801612bf1565b949794965050505060408301359260600135919050565b60408101612dc68285612cd1565b82151560208301529392505050565b600080600060608486031215612dea57600080fd5b83359250602084013567ffffffffffffffff80821115612e0957600080fd5b612e1587838801612bf1565b93506040860135915080821115612e2b57600080fd5b50612e3886828701612bf1565b9150509250925092565b60008060408385031215612e5557600080fd5b8235915060208301358015158114612e6c57600080fd5b809150509250929050565b8215158152604060208201526000612cb36040830184612a87565b60e081526000612ea560e083018a612a87565b8281036020840152612eb7818a612a87565b915050612ec76040830188612cd1565b6060820195909552608081019390935290151560a0830152151560c0909101529392505050565b60c081526000612f0160c0830189612a87565b9050612f106020830188612cd1565b941515604082015260608101939093526080830191909152151560a09091015292915050565b602080825260139082015272125b9d985b1a5908195b1958dd1a5bdb881251606a1b604082015260600190565b60208082526017908201527f456c656374696f6e20646f6573206e6f74206578697374000000000000000000604082015260600190565b600181811c90821680612fae57607f821691505b602082108103610df657634e487b7160e01b600052602260045260246000fd5b602080825260149082015273159bdd195c881b9bdd081c9959da5cdd195c995960621b604082015260600190565b60006001820161301c57634e487b7160e01b600052601160045260246000fd5b5060010190565b6020808252600d908201526c13985b59481c995c5d5a5c9959609a1b604082015260600190565b601f82111561309457600081815260208120601f850160051c810160208610156130715750805b601f850160051c820191505b818110156130905782815560010161307d565b5050505b505050565b815167ffffffffffffffff8111156130b3576130b3612bdb565b6130c7816130c18454612f9a565b8461304a565b602080601f8311600181146130fc57600084156130e45750858301515b600019600386901b1c1916600185901b178555613090565b600085815260208120601f198616915b8281101561312b5788860151825594840194600190910190840161310c565b50858210156131495787850151600019600388901b60f8161c191681555b5050505050600190811b01905550565b60808152600061316c6080830187612a87565b60208301959095525060408101929092526001600160a01b0316606090910152919050565b634e487b7160e01b600052603260045260246000fd5b600083516131b9818460208801612a63565b60609390931b6bffffffffffffffffffffffff19169190920190815260140192915050565b600082516131f0818460208701612a63565b9190910192915050565b6bffffffffffffffffffffffff198560601b16815260008451613224816014850160208901612a63565b909101601481019390935250603482015260540192915050565b6040815260006132516040830185612a87565b82810360208401526132638185612a87565b95945050505050565b6000825161327e818460208701612a63565b7f5374617475733d566f7465642062757420766f746564466f723d303b20000000920191825250601d01919050565b600082516132bf818460208701612a63565b7f5374617475733d566f74656420627574206e6f2074696d657374616d703b2000920191825250601f01919050565b60008251613300818460208701612a63565b7f48617320766f7465206275742073746174757320213d20566f7465643b200000920191825250601e01919050565b60008251613341818460208701612a63565b7f566f74656420666f72206e6f6e2d6578697374656e742063616e6469646174659201918252506101d960f51b602082015260220191905056fe566f746572206e6f742072656769737465726564202d20636f6e73697374656e74a26469706673582212202dcbb4ce2edba8331b556baadc8c0710558cdddb92142f71189c11b431c157df64736f6c63430008130033",
  "immutableReferences": {},
  "source": "// SPDX-License-Identifier: MIT\npragma solidity ^0.8.19;\n\n/**\n * @title VotingSystemFixed\n * @dev Fixed version that eliminates data inconsistency issues\n * Key improvements:\n * - Single source of truth for all voter data\n * - Atomic state updates\n * - Comprehensive validation\n * - Consistent method behavior\n */\ncontract VotingSystemFixed {\n    \n    // ============ STATE VARIABLES ============\n    \n    address public owner;\n    address public nikOracle;\n    \n    // Reentrancy protection\n    bool private locked;\n    modifier noReentrant() {\n        require(!locked, \"Reentrant call\");\n        locked = true;\n        _;\n        locked = false;\n    }\n    \n    modifier onlyOwner() {\n        require(msg.sender == owner, \"Only owner\");\n        _;\n    }\n    \n    // ============ ENUMS & STRUCTS ============\n    \n    enum VoterStatus { \n        NotRegistered,      // 0\n        PendingVerification,// 1  \n        Registered,         // 2\n        Voted              // 3\n    }\n    \n    struct Election {\n        uint256 id;\n        string name;\n        string description;\n        uint256 startTime;\n        uint256 endTime;\n        uint256 candidateCount;\n        uint256 totalVotes;\n        bool active;\n        address creator;\n        bool exists; // Add existence flag\n    }\n\n    struct Candidate {\n        uint256 id;\n        uint256 electionId;\n        string name;\n        string details;\n        uint256 voteCount;\n        bool exists; // Add existence flag\n    }\n\n    //  CRITICAL: Single source of truth for voter data\n    struct Voter {\n        string name;\n        string nikHash;\n        VoterStatus status;\n        uint256 votedFor;     // Candidate ID (0 = no vote)\n        uint256 voteTimestamp; // When they voted\n        bool nikVerified;\n        bool exists;          // Voter exists flag\n    }\n\n    // ============ STORAGE ============\n    \n    uint256 public electionCount;\n    uint256 private candidateCount;\n\n    // Main mappings - single source of truth\n    mapping(uint256 => Election) public elections;\n    mapping(uint256 => Candidate) public candidates;\n    mapping(uint256 => uint256[]) public electionCandidates;\n    \n    //  SINGLE SOURCE: All voter data in one mapping\n    mapping(uint256 => mapping(address => Voter)) public electionVoters;\n    \n    // NIK usage tracking\n    mapping(string => bool) public usedNIKHashes;\n\n    // ============ EVENTS ============\n    \n    event OwnershipTransferred(address indexed previousOwner, address indexed newOwner);\n    event ElectionCreated(uint256 indexed electionId, string name, uint256 startTime, uint256 endTime, address creator);\n    event CandidateAdded(uint256 indexed electionId, uint256 indexed candidateId, string name, string details);\n    event VoterRegistrationRequested(uint256 indexed electionId, address indexed voter, bytes32 requestId);\n    event VoterVerified(uint256 indexed electionId, address indexed voter, bool verified);\n    event VoteSubmitted(uint256 indexed electionId, uint256 indexed candidateId, address indexed voter, uint256 timestamp);\n    event ElectionStatusChanged(uint256 indexed electionId, bool active);\n\n    // ============ CONSTRUCTOR ============\n    \n    constructor() {\n        owner = msg.sender;\n        electionCount = 0;\n        candidateCount = 0;\n        locked = false;\n        emit OwnershipTransferred(address(0), msg.sender);\n    }\n\n    // ============ MODIFIERS ============\n    \n    modifier validElection(uint256 _electionId) {\n        require(_electionId > 0 && _electionId <= electionCount, \"Invalid election ID\");\n        require(elections[_electionId].exists, \"Election does not exist\");\n        _;\n    }\n    \n    modifier validCandidate(uint256 _candidateId) {\n        require(_candidateId > 0 && _candidateId <= candidateCount, \"Invalid candidate ID\");\n        require(candidates[_candidateId].exists, \"Candidate does not exist\");\n        _;\n    }\n    \n    modifier voterExists(uint256 _electionId, address _voter) {\n        require(electionVoters[_electionId][_voter].exists, \"Voter not registered\");\n        _;\n    }\n\n    // ============ OWNERSHIP FUNCTIONS ============\n    \n    function setOracleAddress(address _oracleAddress) external onlyOwner {\n        nikOracle = _oracleAddress;\n    }\n\n    function transferOwnership(address newOwner) external onlyOwner {\n        require(newOwner != address(0), \"Invalid address\");\n        emit OwnershipTransferred(owner, newOwner);\n        owner = newOwner;\n    }\n\n    // ============ ELECTION MANAGEMENT ============\n    \n    function createElection(\n        string memory _name,\n        string memory _description,\n        uint256 _startTime,\n        uint256 _endTime\n    ) external returns (uint256) {\n        require(_startTime < _endTime, \"Invalid time range\");\n        require(_endTime > block.timestamp, \"End time in past\");\n        require(bytes(_name).length > 0, \"Name required\");\n\n        electionCount++;\n        uint256 electionId = electionCount;\n\n        //  ATOMIC: Set all election data at once\n        Election storage newElection = elections[electionId];\n        newElection.id = electionId;\n        newElection.name = _name;\n        newElection.description = _description;\n        newElection.startTime = _startTime;\n        newElection.endTime = _endTime;\n        newElection.candidateCount = 0;\n        newElection.totalVotes = 0;\n        newElection.active = true;\n        newElection.creator = msg.sender;\n        newElection.exists = true; // Mark as exists\n\n        emit ElectionCreated(electionId, _name, _startTime, _endTime, msg.sender);\n        return electionId;\n    }\n\n    function addCandidate(\n        uint256 _electionId,\n        string memory _name,\n        string memory _details\n    ) external validElection(_electionId) {\n        require(elections[_electionId].creator == msg.sender, \"Only creator\");\n        require(block.timestamp < elections[_electionId].startTime, \"Election started\");\n        require(bytes(_name).length > 0, \"Name required\");\n\n        candidateCount++;\n        uint256 candidateId = candidateCount;\n\n        //  ATOMIC: Set all candidate data at once\n        Candidate storage newCandidate = candidates[candidateId];\n        newCandidate.id = candidateId;\n        newCandidate.electionId = _electionId;\n        newCandidate.name = _name;\n        newCandidate.details = _details;\n        newCandidate.voteCount = 0;\n        newCandidate.exists = true; // Mark as exists\n\n        // Update election candidate count and list atomically\n        elections[_electionId].candidateCount++;\n        electionCandidates[_electionId].push(candidateId);\n\n        emit CandidateAdded(_electionId, candidateId, _name, _details);\n    }\n\n    // ============ VOTER REGISTRATION ============\n    \n    function registerVoter(\n        uint256 _electionId,\n        string memory _name,\n        string memory _nik\n    ) external noReentrant validElection(_electionId) {\n        require(bytes(_name).length > 0, \"Name required\");\n        require(bytes(_nik).length == 16, \"NIK must be 16 digits\");\n        require(!electionVoters[_electionId][msg.sender].exists, \"Already registered\");\n\n        // Validate NIK is numeric\n        bytes memory nikBytes = bytes(_nik);\n        for (uint i = 0; i < nikBytes.length; i++) {\n            require(nikBytes[i] >= 0x30 && nikBytes[i] <= 0x39, \"NIK must be numeric\");\n        }\n\n        // Create NIK hash\n        bytes32 nikHashBytes = keccak256(abi.encodePacked(_nik, msg.sender));\n        string memory nikHash = string(abi.encodePacked(nikHashBytes));\n        \n        require(!usedNIKHashes[nikHash], \"NIK already used\");\n        usedNIKHashes[nikHash] = true;\n\n        // Create request ID\n        bytes32 requestId = keccak256(abi.encodePacked(msg.sender, _nik, block.timestamp, block.number));\n\n        //  ATOMIC: Set ALL voter data at once - no partial updates!\n        Voter storage newVoter = electionVoters[_electionId][msg.sender];\n        newVoter.name = _name;\n        newVoter.nikHash = nikHash;\n        newVoter.status = VoterStatus.Registered; // Skip verification for demo\n        newVoter.votedFor = 0; // No vote yet\n        newVoter.voteTimestamp = 0; // No vote timestamp yet\n        newVoter.nikVerified = true; // Auto-verify for demo\n        newVoter.exists = true; // Mark as exists\n\n        emit VoterRegistrationRequested(_electionId, msg.sender, requestId);\n        emit VoterVerified(_electionId, msg.sender, true);\n    }\n\n    // ============ VOTING FUNCTIONS ============\n    \n    function castVote(uint256 _electionId, uint256 _candidateId) \n        external \n        noReentrant \n        validElection(_electionId) \n        validCandidate(_candidateId)\n        voterExists(_electionId, msg.sender)\n    {\n        Election storage election = elections[_electionId];\n        Voter storage voter = electionVoters[_electionId][msg.sender];\n        Candidate storage candidate = candidates[_candidateId];\n        \n        //  COMPREHENSIVE VALIDATION - All checks before any state changes\n        require(election.active, \"Election not active\");\n        require(block.timestamp >= election.startTime, \"Not started\");\n        require(block.timestamp <= election.endTime, \"Ended\");\n        require(voter.status == VoterStatus.Registered, \"Not registered\");\n        require(voter.nikVerified, \"Not verified\");\n        require(voter.votedFor == 0, \"Already voted\"); // Check vote data directly\n        require(candidate.electionId == _electionId, \"Candidate not in this election\");\n\n        //  ATOMIC STATE UPDATE - All changes happen together\n        uint256 voteTimestamp = block.timestamp;\n        \n        // Update voter data atomically\n        voter.status = VoterStatus.Voted;\n        voter.votedFor = _candidateId;\n        voter.voteTimestamp = voteTimestamp;\n\n        // Update candidate and election counters atomically\n        candidate.voteCount++;\n        election.totalVotes++;\n\n        emit VoteSubmitted(_electionId, _candidateId, msg.sender, voteTimestamp);\n    }\n\n    // ============ VIEW FUNCTIONS - CONSISTENT DATA ACCESS ============\n    \n    /**\n     * @dev Get voter status - reads from single source\n     */\n    function voterStatus(uint256 _electionId, address _voter) \n        external \n        view \n        validElection(_electionId)\n        returns (VoterStatus) \n    {\n        return electionVoters[_electionId][_voter].status;\n    }\n    \n    /**\n     * @dev Get comprehensive voter status with verification info\n     */\n    function getVoterStatus(uint256 _electionId, address _voter) \n        external \n        view \n        validElection(_electionId)\n        returns (VoterStatus status, bool verified) \n    {\n        Voter memory voter = electionVoters[_electionId][_voter];\n        return (voter.status, voter.nikVerified);\n    }\n    \n    /**\n     * @dev Get user's vote - FIXED: consistent with voter status\n     */\n    function getUserVote(uint256 _electionId, address _voter) \n        external \n        view \n        validElection(_electionId)\n        returns (uint256) \n    {\n        Voter memory voter = electionVoters[_electionId][_voter];\n        \n        //  CONSISTENT CHECK: Use same data source as voterStatus\n        require(voter.exists, \"Voter not registered\");\n        require(voter.status == VoterStatus.Voted, \"Not voted\");\n        require(voter.votedFor != 0, \"No vote recorded\"); // Extra safety check\n        \n        return voter.votedFor;\n    }\n    \n    /**\n     * @dev Get user's vote timestamp\n     */\n    function getUserVoteTimestamp(uint256 _electionId, address _voter) \n        external \n        view \n        validElection(_electionId)\n        returns (uint256) \n    {\n        Voter memory voter = electionVoters[_electionId][_voter];\n        \n        require(voter.exists, \"Voter not registered\");\n        require(voter.status == VoterStatus.Voted, \"Not voted\");\n        require(voter.voteTimestamp != 0, \"No timestamp recorded\");\n        \n        return voter.voteTimestamp;\n    }\n    \n    /**\n     * @dev Get complete voter information - for debugging and transparency\n     */\n    function getVoterInfo(uint256 _electionId, address _voter) \n        external \n        view \n        validElection(_electionId)\n        returns (\n            string memory name,\n            VoterStatus status,\n            bool nikVerified,\n            uint256 votedFor,\n            uint256 voteTimestamp,\n            bool exists\n        ) \n    {\n        Voter memory voter = electionVoters[_electionId][_voter];\n        return (\n            voter.name,\n            voter.status,\n            voter.nikVerified,\n            voter.votedFor,\n            voter.voteTimestamp,\n            voter.exists\n        );\n    }\n\n    // ============ ELECTION VIEW FUNCTIONS ============\n    \n    function getElectionCandidates(uint256 _electionId) \n        external \n        view \n        validElection(_electionId)\n        returns (uint256[] memory) \n    {\n        return electionCandidates[_electionId];\n    }\n\n    function getCandidateInfo(uint256 _candidateId) \n        external \n        view \n        validCandidate(_candidateId)\n        returns (uint256, string memory, string memory, uint256) \n    {\n        Candidate memory candidate = candidates[_candidateId];\n        return (candidate.id, candidate.name, candidate.details, candidate.voteCount);\n    }\n\n    function isElectionActive(uint256 _electionId) \n        external \n        view \n        validElection(_electionId)\n        returns (bool) \n    {\n        return elections[_electionId].active;\n    }\n\n    // ============ ADMIN FUNCTIONS ============\n    \n    function setElectionStatus(uint256 _electionId, bool _active) \n        external \n        validElection(_electionId)\n    {\n        require(elections[_electionId].creator == msg.sender, \"Only creator\");\n        \n        elections[_electionId].active = _active;\n        emit ElectionStatusChanged(_electionId, _active);\n    }\n\n    // ============ DATA CONSISTENCY CHECKS ============\n    \n    /**\n     * @dev Emergency function to check data consistency\n     */\n    function checkVoterConsistency(uint256 _electionId, address _voter) \n        external \n        view \n        validElection(_electionId)\n        returns (bool isConsistent, string memory issues) \n    {\n        Voter memory voter = electionVoters[_electionId][_voter];\n        \n        if (!voter.exists) {\n            return (true, \"Voter not registered - consistent\");\n        }\n        \n        // Check for inconsistencies\n        string memory problems = \"\";\n        bool consistent = true;\n        \n        if (voter.status == VoterStatus.Voted && voter.votedFor == 0) {\n            problems = string(abi.encodePacked(problems, \"Status=Voted but votedFor=0; \"));\n            consistent = false;\n        }\n        \n        if (voter.status == VoterStatus.Voted && voter.voteTimestamp == 0) {\n            problems = string(abi.encodePacked(problems, \"Status=Voted but no timestamp; \"));\n            consistent = false;\n        }\n        \n        if (voter.votedFor != 0 && voter.status != VoterStatus.Voted) {\n            problems = string(abi.encodePacked(problems, \"Has vote but status != Voted; \"));\n            consistent = false;\n        }\n        \n        if (voter.votedFor != 0 && !candidates[voter.votedFor].exists) {\n            problems = string(abi.encodePacked(problems, \"Voted for non-existent candidate; \"));\n            consistent = false;\n        }\n        \n        return (consistent, consistent ? \"All data consistent\" : problems);\n    }\n}",
  "sourcePath": "/home/sophie/blockchain-project/voting-system/contracts/VotingSystem.sol",
  "compiler": {
    "name": "solc",
    "version": "0.8.19+commit.7dd6d404.Emscripten.clang"
  },
  "schemaVersion": "3.4.16",
  "updatedAt": "2025-06-02T13:43:01.650Z",
  "devdoc": {
    "details": "Fixed version that eliminates data inconsistency issues Key improvements: - Single source of truth for all voter data - Atomic state updates - Comprehensive validation - Consistent method behavior",
    "kind": "dev",
    "methods": {
      "checkVoterConsistency(uint256,address)": {
        "details": "Emergency function to check data consistency"
      },
      "getUserVote(uint256,address)": {
        "details": "Get user's vote - FIXED: consistent with voter status"
      },
      "getUserVoteTimestamp(uint256,address)": {
        "details": "Get user's vote timestamp"
      },
      "getVoterInfo(uint256,address)": {
        "details": "Get complete voter information - for debugging and transparency"
      },
      "getVoterStatus(uint256,address)": {
        "details": "Get comprehensive voter status with verification info"
      },
      "voterStatus(uint256,address)": {
        "details": "Get voter status - reads from single source"
      }
    },
    "title": "VotingSystemFixed",
    "version": 1
  },
  "userdoc": {
    "kind": "user",
    "methods": {},
    "version": 1
  }
}