{
  "contractName": "VotingSystem",
  "abi": [
    {
      "inputs": [],
      "stateMutability": "nonpayable",
      "type": "constructor"
    },
    {
      "anonymous": false,
      "inputs": [
        {
          "indexed": true,
          "internalType": "uint256",
          "name": "electionId",
          "type": "uint256"
        },
        {
          "indexed": true,
          "internalType": "uint256",
          "name": "candidateId",
          "type": "uint256"
        },
        {
          "indexed": false,
          "internalType": "string",
          "name": "name",
          "type": "string"
        },
        {
          "indexed": false,
          "internalType": "string",
          "name": "details",
          "type": "string"
        }
      ],
      "name": "CandidateAdded",
      "type": "event"
    },
    {
      "anonymous": false,
      "inputs": [
        {
          "indexed": true,
          "internalType": "uint256",
          "name": "electionId",
          "type": "uint256"
        },
        {
          "indexed": false,
          "internalType": "string",
          "name": "name",
          "type": "string"
        },
        {
          "indexed": false,
          "internalType": "uint256",
          "name": "startTime",
          "type": "uint256"
        },
        {
          "indexed": false,
          "internalType": "uint256",
          "name": "endTime",
          "type": "uint256"
        },
        {
          "indexed": false,
          "internalType": "address",
          "name": "creator",
          "type": "address"
        }
      ],
      "name": "ElectionCreated",
      "type": "event"
    },
    {
      "anonymous": false,
      "inputs": [
        {
          "indexed": true,
          "internalType": "uint256",
          "name": "electionId",
          "type": "uint256"
        },
        {
          "indexed": false,
          "internalType": "bool",
          "name": "active",
          "type": "bool"
        }
      ],
      "name": "ElectionStatusChanged",
      "type": "event"
    },
    {
      "anonymous": false,
      "inputs": [
        {
          "indexed": true,
          "internalType": "address",
          "name": "previousOwner",
          "type": "address"
        },
        {
          "indexed": true,
          "internalType": "address",
          "name": "newOwner",
          "type": "address"
        }
      ],
      "name": "OwnershipTransferred",
      "type": "event"
    },
    {
      "anonymous": false,
      "inputs": [
        {
          "indexed": true,
          "internalType": "uint256",
          "name": "electionId",
          "type": "uint256"
        },
        {
          "indexed": true,
          "internalType": "uint256",
          "name": "candidateId",
          "type": "uint256"
        },
        {
          "indexed": true,
          "internalType": "address",
          "name": "voter",
          "type": "address"
        }
      ],
      "name": "VoteSubmitted",
      "type": "event"
    },
    {
      "anonymous": false,
      "inputs": [
        {
          "indexed": true,
          "internalType": "uint256",
          "name": "electionId",
          "type": "uint256"
        },
        {
          "indexed": true,
          "internalType": "address",
          "name": "voter",
          "type": "address"
        },
        {
          "indexed": false,
          "internalType": "bytes32",
          "name": "requestId",
          "type": "bytes32"
        }
      ],
      "name": "VoterRegistrationRequested",
      "type": "event"
    },
    {
      "anonymous": false,
      "inputs": [
        {
          "indexed": true,
          "internalType": "uint256",
          "name": "electionId",
          "type": "uint256"
        },
        {
          "indexed": true,
          "internalType": "address",
          "name": "voter",
          "type": "address"
        },
        {
          "indexed": false,
          "internalType": "bool",
          "name": "verified",
          "type": "bool"
        }
      ],
      "name": "VoterVerified",
      "type": "event"
    },
    {
      "inputs": [
        {
          "internalType": "uint256",
          "name": "",
          "type": "uint256"
        }
      ],
      "name": "candidates",
      "outputs": [
        {
          "internalType": "uint256",
          "name": "id",
          "type": "uint256"
        },
        {
          "internalType": "uint256",
          "name": "electionId",
          "type": "uint256"
        },
        {
          "internalType": "string",
          "name": "name",
          "type": "string"
        },
        {
          "internalType": "string",
          "name": "details",
          "type": "string"
        },
        {
          "internalType": "uint256",
          "name": "voteCount",
          "type": "uint256"
        }
      ],
      "stateMutability": "view",
      "type": "function"
    },
    {
      "inputs": [
        {
          "internalType": "uint256",
          "name": "",
          "type": "uint256"
        },
        {
          "internalType": "uint256",
          "name": "",
          "type": "uint256"
        }
      ],
      "name": "electionCandidates",
      "outputs": [
        {
          "internalType": "uint256",
          "name": "",
          "type": "uint256"
        }
      ],
      "stateMutability": "view",
      "type": "function"
    },
    {
      "inputs": [],
      "name": "electionCount",
      "outputs": [
        {
          "internalType": "uint256",
          "name": "",
          "type": "uint256"
        }
      ],
      "stateMutability": "view",
      "type": "function"
    },
    {
      "inputs": [
        {
          "internalType": "uint256",
          "name": "",
          "type": "uint256"
        },
        {
          "internalType": "address",
          "name": "",
          "type": "address"
        }
      ],
      "name": "electionVoters",
      "outputs": [
        {
          "internalType": "string",
          "name": "name",
          "type": "string"
        },
        {
          "internalType": "string",
          "name": "nikHash",
          "type": "string"
        },
        {
          "internalType": "enum VotingSystem.VoterStatus",
          "name": "status",
          "type": "uint8"
        },
        {
          "internalType": "uint256",
          "name": "votedFor",
          "type": "uint256"
        },
        {
          "internalType": "uint256",
          "name": "timestamp",
          "type": "uint256"
        },
        {
          "internalType": "bool",
          "name": "nikVerified",
          "type": "bool"
        }
      ],
      "stateMutability": "view",
      "type": "function"
    },
    {
      "inputs": [
        {
          "internalType": "uint256",
          "name": "",
          "type": "uint256"
        }
      ],
      "name": "elections",
      "outputs": [
        {
          "internalType": "uint256",
          "name": "id",
          "type": "uint256"
        },
        {
          "internalType": "string",
          "name": "name",
          "type": "string"
        },
        {
          "internalType": "string",
          "name": "description",
          "type": "string"
        },
        {
          "internalType": "uint256",
          "name": "startTime",
          "type": "uint256"
        },
        {
          "internalType": "uint256",
          "name": "endTime",
          "type": "uint256"
        },
        {
          "internalType": "uint256",
          "name": "candidateCount",
          "type": "uint256"
        },
        {
          "internalType": "uint256",
          "name": "totalVotes",
          "type": "uint256"
        },
        {
          "internalType": "bool",
          "name": "active",
          "type": "bool"
        },
        {
          "internalType": "address",
          "name": "creator",
          "type": "address"
        }
      ],
      "stateMutability": "view",
      "type": "function"
    },
    {
      "inputs": [],
      "name": "nikOracle",
      "outputs": [
        {
          "internalType": "address",
          "name": "",
          "type": "address"
        }
      ],
      "stateMutability": "view",
      "type": "function"
    },
    {
      "inputs": [],
      "name": "owner",
      "outputs": [
        {
          "internalType": "address",
          "name": "",
          "type": "address"
        }
      ],
      "stateMutability": "view",
      "type": "function"
    },
    {
      "inputs": [
        {
          "internalType": "string",
          "name": "",
          "type": "string"
        }
      ],
      "name": "usedNIKHashes",
      "outputs": [
        {
          "internalType": "bool",
          "name": "",
          "type": "bool"
        }
      ],
      "stateMutability": "view",
      "type": "function"
    },
    {
      "inputs": [
        {
          "internalType": "address",
          "name": "_oracleAddress",
          "type": "address"
        }
      ],
      "name": "setOracleAddress",
      "outputs": [],
      "stateMutability": "nonpayable",
      "type": "function"
    },
    {
      "inputs": [
        {
          "internalType": "address",
          "name": "newOwner",
          "type": "address"
        }
      ],
      "name": "transferOwnership",
      "outputs": [],
      "stateMutability": "nonpayable",
      "type": "function"
    },
    {
      "inputs": [
        {
          "internalType": "string",
          "name": "_name",
          "type": "string"
        },
        {
          "internalType": "string",
          "name": "_description",
          "type": "string"
        },
        {
          "internalType": "uint256",
          "name": "_startTime",
          "type": "uint256"
        },
        {
          "internalType": "uint256",
          "name": "_endTime",
          "type": "uint256"
        }
      ],
      "name": "createElection",
      "outputs": [
        {
          "internalType": "uint256",
          "name": "",
          "type": "uint256"
        }
      ],
      "stateMutability": "nonpayable",
      "type": "function"
    },
    {
      "inputs": [
        {
          "internalType": "uint256",
          "name": "_electionId",
          "type": "uint256"
        },
        {
          "internalType": "string",
          "name": "_name",
          "type": "string"
        },
        {
          "internalType": "string",
          "name": "_details",
          "type": "string"
        }
      ],
      "name": "addCandidate",
      "outputs": [],
      "stateMutability": "nonpayable",
      "type": "function"
    },
    {
      "inputs": [
        {
          "internalType": "uint256",
          "name": "_electionId",
          "type": "uint256"
        },
        {
          "internalType": "string",
          "name": "_name",
          "type": "string"
        },
        {
          "internalType": "string",
          "name": "_nik",
          "type": "string"
        }
      ],
      "name": "registerVoter",
      "outputs": [],
      "stateMutability": "nonpayable",
      "type": "function"
    },
    {
      "inputs": [
        {
          "internalType": "uint256",
          "name": "_electionId",
          "type": "uint256"
        },
        {
          "internalType": "uint256",
          "name": "_candidateId",
          "type": "uint256"
        }
      ],
      "name": "castVote",
      "outputs": [],
      "stateMutability": "nonpayable",
      "type": "function"
    },
    {
      "inputs": [
        {
          "internalType": "uint256",
          "name": "_electionId",
          "type": "uint256"
        },
        {
          "internalType": "address",
          "name": "_voter",
          "type": "address"
        }
      ],
      "name": "getVoterStatus",
      "outputs": [
        {
          "internalType": "enum VotingSystem.VoterStatus",
          "name": "",
          "type": "uint8"
        },
        {
          "internalType": "bool",
          "name": "",
          "type": "bool"
        }
      ],
      "stateMutability": "view",
      "type": "function"
    },
    {
      "inputs": [
        {
          "internalType": "uint256",
          "name": "_electionId",
          "type": "uint256"
        }
      ],
      "name": "getElectionCandidates",
      "outputs": [
        {
          "internalType": "uint256[]",
          "name": "",
          "type": "uint256[]"
        }
      ],
      "stateMutability": "view",
      "type": "function"
    },
    {
      "inputs": [
        {
          "internalType": "uint256",
          "name": "_candidateId",
          "type": "uint256"
        }
      ],
      "name": "getCandidateInfo",
      "outputs": [
        {
          "internalType": "uint256",
          "name": "",
          "type": "uint256"
        },
        {
          "internalType": "string",
          "name": "",
          "type": "string"
        },
        {
          "internalType": "string",
          "name": "",
          "type": "string"
        },
        {
          "internalType": "uint256",
          "name": "",
          "type": "uint256"
        }
      ],
      "stateMutability": "view",
      "type": "function"
    },
    {
      "inputs": [
        {
          "internalType": "uint256",
          "name": "_electionId",
          "type": "uint256"
        }
      ],
      "name": "isElectionActive",
      "outputs": [
        {
          "internalType": "bool",
          "name": "",
          "type": "bool"
        }
      ],
      "stateMutability": "view",
      "type": "function"
    },
    {
      "inputs": [
        {
          "internalType": "uint256",
          "name": "_electionId",
          "type": "uint256"
        },
        {
          "internalType": "address",
          "name": "_voter",
          "type": "address"
        }
      ],
      "name": "getUserVote",
      "outputs": [
        {
          "internalType": "uint256",
          "name": "",
          "type": "uint256"
        }
      ],
      "stateMutability": "view",
      "type": "function"
    },
    {
      "inputs": [
        {
          "internalType": "uint256",
          "name": "_electionId",
          "type": "uint256"
        },
        {
          "internalType": "address",
          "name": "_voter",
          "type": "address"
        }
      ],
      "name": "getUserVoteTimestamp",
      "outputs": [
        {
          "internalType": "uint256",
          "name": "",
          "type": "uint256"
        }
      ],
      "stateMutability": "view",
      "type": "function"
    },
    {
      "inputs": [
        {
          "internalType": "uint256",
          "name": "_electionId",
          "type": "uint256"
        },
        {
          "internalType": "bool",
          "name": "_active",
          "type": "bool"
        }
      ],
      "name": "setElectionStatus",
      "outputs": [],
      "stateMutability": "nonpayable",
      "type": "function"
    },
    {
      "inputs": [
        {
          "internalType": "uint256",
          "name": "_electionId",
          "type": "uint256"
        },
        {
          "internalType": "address",
          "name": "_voter",
          "type": "address"
        }
      ],
      "name": "voterStatus",
      "outputs": [
        {
          "internalType": "enum VotingSystem.VoterStatus",
          "name": "",
          "type": "uint8"
        }
      ],
      "stateMutability": "view",
      "type": "function"
    }
  ],
  "bytecode": "0x608060405234801561000f575f80fd5b505f80546001600160a01b0319163390811782556040519091907f8be0079c531659141344cd1fd0a4f28419497f9722a3daafe3b4186f6b6457e0908290a36123838061005b5f395ff3fe608060405234801561000f575f80fd5b506004361061013d575f3560e01c80637ad36e84116100b4578063cd65a20a11610079578063cd65a20a1461031c578063d5617ecf1461032f578063e6c62efc14610342578063f2fde38b14610355578063f3d34f3a14610368578063f5728fbe1461037b575f80fd5b80637ad36e84146102ba5780638da5cb5b146102cd578063942f56bd146102df578063997d283014610300578063a42c56f714610309575f80fd5b80635e12845e116101055780635e12845e146101de5780635e6fef01146101fe57806368d59bc8146102265780636a14edfd146102645780636ee17f6f1461028457806370f67cfe14610297575f80fd5b806303c7881a146101415780632c0a3f89146101675780633477ee2e1461017c5780633d0b4a6e146101a05780634c69c00f146101cb575b5f80fd5b61015461014f366004611c00565b6103a0565b6040519081526020015b60405180910390f35b61017a610175366004611c2a565b610478565b005b61018f61018a366004611c4a565b610782565b60405161015e959493929190611cae565b6001546101b3906001600160a01b031681565b6040516001600160a01b03909116815260200161015e565b61017a6101d9366004611cf1565b6108bc565b6101f16101ec366004611c4a565b610924565b60405161015e9190611d11565b61021161020c366004611c4a565b6109b0565b60405161015e99989796959493929190611d54565b610254610234366004611e5e565b805160208183018101805160088252928201919093012091525460ff1681565b604051901515815260200161015e565b610277610272366004611c00565b610b11565b60405161015e9190611ecc565b610254610292366004611c4a565b610b6d565b6102aa6102a5366004611c4a565b610bb3565b60405161015e9493929190611eda565b6101546102c8366004611f16565b610d87565b5f546101b3906001600160a01b031681565b6102f26102ed366004611c00565b610f7a565b60405161015e929190611f85565b61015460025481565b610154610317366004611c2a565b611162565b61017a61032a366004611fa2565b61118d565b61017a61033d36600461200a565b6115ed565b61017a610350366004611fa2565b6116cf565b61017a610363366004611cf1565b6118e0565b610154610376366004611c00565b6119c7565b61038e610389366004611c00565b611a94565b60405161015e9695949392919061203c565b5f80831180156103b257506002548311155b6103d75760405162461bcd60e51b81526004016103ce9061208f565b60405180910390fd5b60035f8481526007602090815260408083206001600160a01b038716845290915290206002015460ff16600381111561041257610412611e98565b1461044b5760405162461bcd60e51b8152602060048201526009602482015268139bdd081d9bdd195960ba1b60448201526064016103ce565b505f8281526007602090815260408083206001600160a01b03851684529091529020600301545b92915050565b600154600160a01b900460ff16156104c35760405162461bcd60e51b815260206004820152600e60248201526d1499595b9d1c985b9d0818d85b1b60921b60448201526064016103ce565b6001805460ff60a01b1916600160a01b17905581158015906104e757506002548211155b6105035760405162461bcd60e51b81526004016103ce9061208f565b5f828152600460205260409020600781015460ff1661055a5760405162461bcd60e51b8152602060048201526013602482015272456c656374696f6e206e6f742061637469766560681b60448201526064016103ce565b806003015442101561059c5760405162461bcd60e51b815260206004820152600b60248201526a139bdd081cdd185c9d195960aa1b60448201526064016103ce565b80600401544211156105d85760405162461bcd60e51b8152602060048201526005602482015264115b99195960da1b60448201526064016103ce565b5f838152600760209081526040808320338452909152902060028082015460ff16600381111561060a5761060a611e98565b146106485760405162461bcd60e51b815260206004820152600e60248201526d139bdd081c9959da5cdd195c995960921b60448201526064016103ce565b600581015460ff1661068b5760405162461bcd60e51b815260206004820152600c60248201526b139bdd081d995c9a599a595960a21b60448201526064016103ce565b5f831180156106a957505f8381526005602052604090206001015484145b6106e95760405162461bcd60e51b8152602060048201526011602482015270496e76616c69642063616e64696461746560781b60448201526064016103ce565b60028101805460ff191660039081179091558101839055426004808301919091555f848152600560205260408120909101805491610726836120b9565b9091555050600682018054905f61073c836120b9565b90915550506040513390849086907fda5ef9e376c941ca1c3a24da035b0dc80de942e10915eb12df78540f1d0793ec905f90a450506001805460ff60a01b191690555050565b60056020525f9081526040902080546001820154600283018054929391926107a9906120dd565b80601f01602080910402602001604051908101604052809291908181526020018280546107d5906120dd565b80156108205780601f106107f757610100808354040283529160200191610820565b820191905f5260205f20905b81548152906001019060200180831161080357829003601f168201915b505050505090806003018054610835906120dd565b80601f0160208091040260200160405190810160405280929190818152602001828054610861906120dd565b80156108ac5780601f10610883576101008083540402835291602001916108ac565b820191905f5260205f20905b81548152906001019060200180831161088f57829003601f168201915b5050505050908060040154905085565b5f546001600160a01b031633146109025760405162461bcd60e51b815260206004820152600a60248201526927b7363c9037bbb732b960b11b60448201526064016103ce565b600180546001600160a01b0319166001600160a01b0392909216919091179055565b60605f8211801561093757506002548211155b6109535760405162461bcd60e51b81526004016103ce9061208f565b5f82815260066020908152604091829020805483518184028101840190945280845290918301828280156109a457602002820191905f5260205f20905b815481526020019060010190808311610990575b50505050509050919050565b60046020525f9081526040902080546001820180549192916109d1906120dd565b80601f01602080910402602001604051908101604052809291908181526020018280546109fd906120dd565b8015610a485780601f10610a1f57610100808354040283529160200191610a48565b820191905f5260205f20905b815481529060010190602001808311610a2b57829003601f168201915b505050505090806002018054610a5d906120dd565b80601f0160208091040260200160405190810160405280929190818152602001828054610a89906120dd565b8015610ad45780601f10610aab57610100808354040283529160200191610ad4565b820191905f5260205f20905b815481529060010190602001808311610ab757829003601f168201915b505050600384015460048501546005860154600687015460079097015495969295919450925060ff8116906001600160a01b036101009091041689565b5f8083118015610b2357506002548311155b610b3f5760405162461bcd60e51b81526004016103ce9061208f565b505f9182526007602090815260408084206001600160a01b0393909316845291905290206002015460ff1690565b5f8082118015610b7f57506002548211155b610b9b5760405162461bcd60e51b81526004016103ce9061208f565b505f9081526004602052604090206007015460ff1690565b5f6060805f8085118015610bc957506003548511155b610c095760405162461bcd60e51b8152602060048201526011602482015270496e76616c69642063616e64696461746560781b60448201526064016103ce565b5f60055f8781526020019081526020015f206040518060a00160405290815f820154815260200160018201548152602001600282018054610c49906120dd565b80601f0160208091040260200160405190810160405280929190818152602001828054610c75906120dd565b8015610cc05780601f10610c9757610100808354040283529160200191610cc0565b820191905f5260205f20905b815481529060010190602001808311610ca357829003601f168201915b50505050508152602001600382018054610cd9906120dd565b80601f0160208091040260200160405190810160405280929190818152602001828054610d05906120dd565b8015610d505780601f10610d2757610100808354040283529160200191610d50565b820191905f5260205f20905b815481529060010190602001808311610d3357829003601f168201915b5050509183525050600491909101546020909101528051604082015160608301516080909301519199909850919650945092505050565b5f818310610dcc5760405162461bcd60e51b8152602060048201526012602482015271496e76616c69642074696d652072616e676560701b60448201526064016103ce565b428211610e0e5760405162461bcd60e51b815260206004820152601060248201526f115b99081d1a5b59481a5b881c185cdd60821b60448201526064016103ce565b5f855111610e2e5760405162461bcd60e51b81526004016103ce90612115565b60028054905f610e3d836120b9565b90915550506002546040805161012081018252828152602080820189815282840189905260608301889052608083018790525f60a0840181905260c08401819052600160e085018190523361010086015286825260049093529390932082518155925191929190820190610eb1908261218a565b5060408201516002820190610ec6908261218a565b50606082015160038201556080820151600482015560a0820151600582015560c0820151600682015560e082015160079091018054610100938401516001600160a81b0319909116921515610100600160a81b031916929092176001600160a01b0390921690920217905560405181907f13ac008e0cdce4387b5f85e53dd6fd03c11f7170f920652af23fea832170559690610f69908990889088903390612246565b60405180910390a295945050505050565b5f805f84118015610f8d57506002548411155b610fa95760405162461bcd60e51b81526004016103ce9061208f565b5f8481526007602090815260408083206001600160a01b0387168452909152808220815160c08101909252805482908290610fe3906120dd565b80601f016020809104026020016040519081016040528092919081815260200182805461100f906120dd565b801561105a5780601f106110315761010080835404028352916020019161105a565b820191905f5260205f20905b81548152906001019060200180831161103d57829003601f168201915b50505050508152602001600182018054611073906120dd565b80601f016020809104026020016040519081016040528092919081815260200182805461109f906120dd565b80156110ea5780601f106110c1576101008083540402835291602001916110ea565b820191905f5260205f20905b8154815290600101906020018083116110cd57829003601f168201915b5050509183525050600282015460209091019060ff16600381111561111157611111611e98565b600381111561112257611122611e98565b815260038201546020820152600482015460408083019190915260059092015460ff16151560609091015281015160a09091015190969095509350505050565b6006602052815f5260405f20818154811061117b575f80fd5b905f5260205f20015f91509150505481565b600154600160a01b900460ff16156111d85760405162461bcd60e51b815260206004820152600e60248201526d1499595b9d1c985b9d0818d85b1b60921b60448201526064016103ce565b6001805460ff60a01b1916600160a01b17905582158015906111fc57506002548311155b6112185760405162461bcd60e51b81526004016103ce9061208f565b5f8251116112385760405162461bcd60e51b81526004016103ce90612115565b80516010146112815760405162461bcd60e51b81526020600482015260156024820152744e494b206d7573742062652031362064696769747360581b60448201526064016103ce565b5f83815260076020908152604080832033845290915281206002015460ff1660038111156112b1576112b1611e98565b146112f35760405162461bcd60e51b8152602060048201526012602482015271105b1c9958591e481c9959da5cdd195c995960721b60448201526064016103ce565b805f5b81518110156113ab57603060f81b8282815181106113165761131661227d565b01602001516001600160f81b031916108015906113575750603960f81b8282815181106113455761134561227d565b01602001516001600160f81b03191611155b6113995760405162461bcd60e51b81526020600482015260136024820152724e494b206d757374206265206e756d6572696360681b60448201526064016103ce565b806113a3816120b9565b9150506112f6565b505f82336040516020016113c0929190612291565b60408051601f198184030181528282528051602091820120908301520160405160208183030381529060405290506008816040516113fe91906122c7565b9081526040519081900360200190205460ff16156114515760405162461bcd60e51b815260206004820152601060248201526f139252c8185b1c9958591e481d5cd95960821b60448201526064016103ce565b600160088260405161146391906122c7565b90815260405160209181900382018120805460ff1916931515939093179092555f9161149591339187914291016122e2565b60408051808303601f19018152828252805160209182012060c0840183528884528184018690526002848401525f6060850181905260808501819052600160a08601528a81526007835283812033825290925291902082519193509081906114fd908261218a565b5060208201516001820190611512908261218a565b50604082015160028201805460ff1916600183600381111561153657611536611e98565b0217905550606082015160038201556080820151600482015560a0909101516005909101805460ff1916911515919091179055604051818152339087907febc6f34d7a20e97ed705d05fdae55d5f7fe63e631655bb2c8b99743bd637a2af9060200160405180910390a360405160018152339087907fccc3951f772a881f4af4f4b008f1073f1bbecde0390b722716931a1c2e0d47889060200160405180910390a350506001805460ff60a01b1916905550505050565b5f821180156115fe57506002548211155b61161a5760405162461bcd60e51b81526004016103ce9061208f565b5f8281526004602052604090206007015461010090046001600160a01b031633146116765760405162461bcd60e51b815260206004820152600c60248201526b27b7363c9031b932b0ba37b960a11b60448201526064016103ce565b5f82815260046020908152604091829020600701805460ff1916841515908117909155915191825283917f550243ff1a84cc99f7f82bfd2e29380f33523ca72cde0783141c25ed8f4dede3910160405180910390a25050565b5f831180156116e057506002548311155b6116fc5760405162461bcd60e51b81526004016103ce9061208f565b5f8381526004602052604090206007015461010090046001600160a01b031633146117585760405162461bcd60e51b815260206004820152600c60248201526b27b7363c9031b932b0ba37b960a11b60448201526064016103ce565b5f8381526004602052604090206003015442106117aa5760405162461bcd60e51b815260206004820152601060248201526f115b1958dd1a5bdb881cdd185c9d195960821b60448201526064016103ce565b5f8251116117ca5760405162461bcd60e51b81526004016103ce90612115565b60038054905f6117d9836120b9565b90915550506003546040805160a0810182528281526020808201878152828401878152606084018790525f60808501819052868152600590935293909120825181559051600182015591519091906002820190611836908261218a565b506060820151600382019061184b908261218a565b50608091909101516004918201555f85815260209190915260408120600501805491611876836120b9565b90915550505f8481526006602090815260408083208054600181018255908452919092200182905551819085907f503cfceb0fb2178c5fb47ff394c816e4075abc8066c3dcb16d08a76847ee6e16906118d29087908790612320565b60405180910390a350505050565b5f546001600160a01b031633146119265760405162461bcd60e51b815260206004820152600a60248201526927b7363c9037bbb732b960b11b60448201526064016103ce565b6001600160a01b03811661196e5760405162461bcd60e51b815260206004820152600f60248201526e496e76616c6964206164647265737360881b60448201526064016103ce565b5f80546040516001600160a01b03808516939216917f8be0079c531659141344cd1fd0a4f28419497f9722a3daafe3b4186f6b6457e091a35f80546001600160a01b0319166001600160a01b0392909216919091179055565b5f80831180156119d957506002548311155b6119f55760405162461bcd60e51b81526004016103ce9061208f565b60035f8481526007602090815260408083206001600160a01b038716845290915290206002015460ff166003811115611a3057611a30611e98565b14611a695760405162461bcd60e51b8152602060048201526009602482015268139bdd081d9bdd195960ba1b60448201526064016103ce565b505f9182526007602090815260408084206001600160a01b0393909316845291905290206004015490565b600760209081525f9283526040808420909152908252902080548190611ab9906120dd565b80601f0160208091040260200160405190810160405280929190818152602001828054611ae5906120dd565b8015611b305780601f10611b0757610100808354040283529160200191611b30565b820191905f5260205f20905b815481529060010190602001808311611b1357829003601f168201915b505050505090806001018054611b45906120dd565b80601f0160208091040260200160405190810160405280929190818152602001828054611b71906120dd565b8015611bbc5780601f10611b9357610100808354040283529160200191611bbc565b820191905f5260205f20905b815481529060010190602001808311611b9f57829003601f168201915b505050600284015460038501546004860154600590960154949560ff9283169591945092501686565b80356001600160a01b0381168114611bfb575f80fd5b919050565b5f8060408385031215611c11575f80fd5b82359150611c2160208401611be5565b90509250929050565b5f8060408385031215611c3b575f80fd5b50508035926020909101359150565b5f60208284031215611c5a575f80fd5b5035919050565b5f5b83811015611c7b578181015183820152602001611c63565b50505f910152565b5f8151808452611c9a816020860160208601611c61565b601f01601f19169290920160200192915050565b85815284602082015260a060408201525f611ccc60a0830186611c83565b8281036060840152611cde8186611c83565b9150508260808301529695505050505050565b5f60208284031215611d01575f80fd5b611d0a82611be5565b9392505050565b602080825282518282018190525f9190848201906040850190845b81811015611d4857835183529284019291840191600101611d2c565b50909695505050505050565b5f6101208b8352806020840152611d6d8184018c611c83565b90508281036040840152611d81818b611c83565b60608401999099525050608081019590955260a085019390935260c0840191909152151560e08301526001600160a01b0316610100909101529392505050565b634e487b7160e01b5f52604160045260245ffd5b5f82601f830112611de4575f80fd5b813567ffffffffffffffff80821115611dff57611dff611dc1565b604051601f8301601f19908116603f01168101908282118183101715611e2757611e27611dc1565b81604052838152866020858801011115611e3f575f80fd5b836020870160208301375f602085830101528094505050505092915050565b5f60208284031215611e6e575f80fd5b813567ffffffffffffffff811115611e84575f80fd5b611e9084828501611dd5565b949350505050565b634e487b7160e01b5f52602160045260245ffd5b60048110611ec857634e487b7160e01b5f52602160045260245ffd5b9052565b602081016104728284611eac565b848152608060208201525f611ef26080830186611c83565b8281036040840152611f048186611c83565b91505082606083015295945050505050565b5f805f8060808587031215611f29575f80fd5b843567ffffffffffffffff80821115611f40575f80fd5b611f4c88838901611dd5565b95506020870135915080821115611f61575f80fd5b50611f6e87828801611dd5565b949794965050505060408301359260600135919050565b60408101611f938285611eac565b82151560208301529392505050565b5f805f60608486031215611fb4575f80fd5b83359250602084013567ffffffffffffffff80821115611fd2575f80fd5b611fde87838801611dd5565b93506040860135915080821115611ff3575f80fd5b5061200086828701611dd5565b9150509250925092565b5f806040838503121561201b575f80fd5b8235915060208301358015158114612031575f80fd5b809150509250929050565b60c081525f61204e60c0830189611c83565b82810360208401526120608189611c83565b9150506120706040830187611eac565b84606083015283608083015282151560a0830152979650505050505050565b60208082526010908201526f24b73b30b634b21032b632b1ba34b7b760811b604082015260600190565b5f600182016120d657634e487b7160e01b5f52601160045260245ffd5b5060010190565b600181811c908216806120f157607f821691505b60208210810361210f57634e487b7160e01b5f52602260045260245ffd5b50919050565b6020808252600d908201526c13985b59481c995c5d5a5c9959609a1b604082015260600190565b601f821115612185575f81815260208120601f850160051c810160208610156121625750805b601f850160051c820191505b818110156121815782815560010161216e565b5050505b505050565b815167ffffffffffffffff8111156121a4576121a4611dc1565b6121b8816121b284546120dd565b8461213c565b602080601f8311600181146121eb575f84156121d45750858301515b5f19600386901b1c1916600185901b178555612181565b5f85815260208120601f198616915b82811015612219578886015182559484019460019091019084016121fa565b508582101561223657878501515f19600388901b60f8161c191681555b5050505050600190811b01905550565b608081525f6122586080830187611c83565b60208301959095525060408101929092526001600160a01b0316606090910152919050565b634e487b7160e01b5f52603260045260245ffd5b5f83516122a2818460208801611c61565b60609390931b6bffffffffffffffffffffffff19169190920190815260140192915050565b5f82516122d8818460208701611c61565b9190910192915050565b6bffffffffffffffffffffffff198460601b1681525f835161230b816014850160208801611c61565b60149201918201929092526034019392505050565b604081525f6123326040830185611c83565b82810360208401526123448185611c83565b9594505050505056fea26469706673582212201245a57bbad779533d2d7c16cc4624dc84a4c80aeab55419a49ac97c67a8992764736f6c63430008150033",
  "immutableReferences": {},
  "source": "// SPDX-License-Identifier: MIT\npragma solidity ^0.8.19;\n\n// Ultra Simple Voting System - No external dependencies in constructor\ncontract VotingSystem {\n    \n    // Simple owner management\n    address public owner;\n    \n    // Optional Oracle (can be set later)\n    address public nikOracle;\n    \n    // Reentrancy protection\n    bool private locked;\n    modifier noReentrant() {\n        require(!locked, \"Reentrant call\");\n        locked = true;\n        _;\n        locked = false;\n    }\n    \n    modifier onlyOwner() {\n        require(msg.sender == owner, \"Only owner\");\n        _;\n    }\n    \n    // Enum untuk status voter\n    enum VoterStatus { \n        NotRegistered,        // 0\n        PendingVerification,  // 1  \n        Registered,           // 2\n        Voted                 // 3\n    }\n    \n    // Struct untuk Election\n    struct Election {\n        uint256 id;\n        string name;\n        string description;\n        uint256 startTime;\n        uint256 endTime;\n        uint256 candidateCount;\n        uint256 totalVotes;\n        bool active;\n        address creator;\n    }\n\n    // Struct untuk Candidate\n    struct Candidate {\n        uint256 id;\n        uint256 electionId;\n        string name;\n        string details;\n        uint256 voteCount;\n    }\n\n    // Struct untuk Voter\n    struct Voter {\n        string name;\n        string nikHash;\n        VoterStatus status;\n        uint256 votedFor;\n        uint256 timestamp;\n        bool nikVerified;\n    }\n\n    // State variables\n    uint256 public electionCount;\n    uint256 private candidateCount;\n\n    // Mappings\n    mapping(uint256 => Election) public elections;\n    mapping(uint256 => Candidate) public candidates;\n    mapping(uint256 => uint256[]) public electionCandidates;\n    mapping(uint256 => mapping(address => Voter)) public electionVoters;\n    mapping(string => bool) public usedNIKHashes;\n\n    // Events\n    event OwnershipTransferred(address indexed previousOwner, address indexed newOwner);\n    event ElectionCreated(uint256 indexed electionId, string name, uint256 startTime, uint256 endTime, address creator);\n    event CandidateAdded(uint256 indexed electionId, uint256 indexed candidateId, string name, string details);\n    event VoterRegistrationRequested(uint256 indexed electionId, address indexed voter, bytes32 requestId);\n    event VoterVerified(uint256 indexed electionId, address indexed voter, bool verified);\n    event VoteSubmitted(uint256 indexed electionId, uint256 indexed candidateId, address indexed voter);\n    event ElectionStatusChanged(uint256 indexed electionId, bool active);\n\n    // Minimal constructor - no parameters\n    constructor() {\n        owner = msg.sender;\n        emit OwnershipTransferred(address(0), msg.sender);\n    }\n\n    // Set Oracle address after deployment\n    function setOracleAddress(address _oracleAddress) external onlyOwner {\n        nikOracle = _oracleAddress;\n    }\n\n    // Ownership functions\n    function transferOwnership(address newOwner) external onlyOwner {\n        require(newOwner != address(0), \"Invalid address\");\n        emit OwnershipTransferred(owner, newOwner);\n        owner = newOwner;\n    }\n\n    // Create new election\n    function createElection(\n        string memory _name,\n        string memory _description,\n        uint256 _startTime,\n        uint256 _endTime\n    ) external returns (uint256) {\n        require(_startTime < _endTime, \"Invalid time range\");\n        require(_endTime > block.timestamp, \"End time in past\");\n        require(bytes(_name).length > 0, \"Name required\");\n\n        electionCount++;\n        uint256 electionId = electionCount;\n\n        elections[electionId] = Election({\n            id: electionId,\n            name: _name,\n            description: _description,\n            startTime: _startTime,\n            endTime: _endTime,\n            candidateCount: 0,\n            totalVotes: 0,\n            active: true,\n            creator: msg.sender\n        });\n\n        emit ElectionCreated(electionId, _name, _startTime, _endTime, msg.sender);\n        return electionId;\n    }\n\n    // Add candidate to election\n    function addCandidate(\n        uint256 _electionId,\n        string memory _name,\n        string memory _details\n    ) external {\n        require(_electionId > 0 && _electionId <= electionCount, \"Invalid election\");\n        require(elections[_electionId].creator == msg.sender, \"Only creator\");\n        require(block.timestamp < elections[_electionId].startTime, \"Election started\");\n        require(bytes(_name).length > 0, \"Name required\");\n\n        candidateCount++;\n        uint256 candidateId = candidateCount;\n\n        candidates[candidateId] = Candidate({\n            id: candidateId,\n            electionId: _electionId,\n            name: _name,\n            details: _details,\n            voteCount: 0\n        });\n\n        elections[_electionId].candidateCount++;\n        electionCandidates[_electionId].push(candidateId);\n\n        emit CandidateAdded(_electionId, candidateId, _name, _details);\n    }\n\n    // Register voter (simplified - auto verify for demo)\n    function registerVoter(\n        uint256 _electionId,\n        string memory _name,\n        string memory _nik\n    ) external noReentrant {\n        require(_electionId > 0 && _electionId <= electionCount, \"Invalid election\");\n        require(bytes(_name).length > 0, \"Name required\");\n        require(bytes(_nik).length == 16, \"NIK must be 16 digits\");\n        require(electionVoters[_electionId][msg.sender].status == VoterStatus.NotRegistered, \"Already registered\");\n\n        // Validate NIK is numeric\n        bytes memory nikBytes = bytes(_nik);\n        for (uint i = 0; i < nikBytes.length; i++) {\n            require(nikBytes[i] >= 0x30 && nikBytes[i] <= 0x39, \"NIK must be numeric\");\n        }\n\n        // Create NIK hash\n        string memory nikHash = string(abi.encodePacked(keccak256(abi.encodePacked(_nik, msg.sender))));\n        require(!usedNIKHashes[nikHash], \"NIK already used\");\n\n        usedNIKHashes[nikHash] = true;\n\n        // Create request ID\n        bytes32 requestId = keccak256(abi.encodePacked(msg.sender, _nik, block.timestamp));\n\n        // Auto-verify for demo (skip Oracle)\n        electionVoters[_electionId][msg.sender] = Voter({\n            name: _name,\n            nikHash: nikHash,\n            status: VoterStatus.Registered, // Skip verification step\n            votedFor: 0,\n            timestamp: 0,\n            nikVerified: true\n        });\n\n        emit VoterRegistrationRequested(_electionId, msg.sender, requestId);\n        emit VoterVerified(_electionId, msg.sender, true);\n    }\n\n    // Cast vote\n    function castVote(uint256 _electionId, uint256 _candidateId) external noReentrant {\n        require(_electionId > 0 && _electionId <= electionCount, \"Invalid election\");\n        \n        Election storage election = elections[_electionId];\n        require(election.active, \"Election not active\");\n        require(block.timestamp >= election.startTime, \"Not started\");\n        require(block.timestamp <= election.endTime, \"Ended\");\n        \n        Voter storage voter = electionVoters[_electionId][msg.sender];\n        require(voter.status == VoterStatus.Registered, \"Not registered\");\n        require(voter.nikVerified, \"Not verified\");\n        require(_candidateId > 0 && candidates[_candidateId].electionId == _electionId, \"Invalid candidate\");\n\n        voter.status = VoterStatus.Voted;\n        voter.votedFor = _candidateId;\n        voter.timestamp = block.timestamp;\n\n        candidates[_candidateId].voteCount++;\n        election.totalVotes++;\n\n        emit VoteSubmitted(_electionId, _candidateId, msg.sender);\n    }\n\n    // View functions\n    function getVoterStatus(uint256 _electionId, address _voter) \n        external \n        view \n        returns (VoterStatus, bool) \n    {\n        require(_electionId > 0 && _electionId <= electionCount, \"Invalid election\");\n        Voter memory voter = electionVoters[_electionId][_voter];\n        return (voter.status, voter.nikVerified);\n    }\n\n    function getElectionCandidates(uint256 _electionId) \n        external \n        view \n        returns (uint256[] memory) \n    {\n        require(_electionId > 0 && _electionId <= electionCount, \"Invalid election\");\n        return electionCandidates[_electionId];\n    }\n\n    function getCandidateInfo(uint256 _candidateId) \n        external \n        view \n        returns (uint256, string memory, string memory, uint256) \n    {\n        require(_candidateId > 0 && _candidateId <= candidateCount, \"Invalid candidate\");\n        Candidate memory candidate = candidates[_candidateId];\n        return (candidate.id, candidate.name, candidate.details, candidate.voteCount);\n    }\n\n    function isElectionActive(uint256 _electionId) \n        external \n        view \n        returns (bool) \n    {\n        require(_electionId > 0 && _electionId <= electionCount, \"Invalid election\");\n        return elections[_electionId].active;\n    }\n\n    function getUserVote(uint256 _electionId, address _voter) \n        external \n        view \n        returns (uint256) \n    {\n        require(_electionId > 0 && _electionId <= electionCount, \"Invalid election\");\n        require(electionVoters[_electionId][_voter].status == VoterStatus.Voted, \"Not voted\");\n        return electionVoters[_electionId][_voter].votedFor;\n    }\n\n    function getUserVoteTimestamp(uint256 _electionId, address _voter) \n        external \n        view \n        returns (uint256) \n    {\n        require(_electionId > 0 && _electionId <= electionCount, \"Invalid election\");\n        require(electionVoters[_electionId][_voter].status == VoterStatus.Voted, \"Not voted\");\n        return electionVoters[_electionId][_voter].timestamp;\n    }\n\n    // Admin functions\n    function setElectionStatus(uint256 _electionId, bool _active) external {\n        require(_electionId > 0 && _electionId <= electionCount, \"Invalid election\");\n        require(elections[_electionId].creator == msg.sender, \"Only creator\");\n        \n        elections[_electionId].active = _active;\n        emit ElectionStatusChanged(_electionId, _active);\n    }\n\n    // Backward compatibility\n    function voterStatus(uint256 _electionId, address _voter) \n        external \n        view \n        returns (VoterStatus) \n    {\n        require(_electionId > 0 && _electionId <= electionCount, \"Invalid election\");\n        return electionVoters[_electionId][_voter].status;\n    }\n}",
  "sourcePath": "/home/sophie/blockchain-project/voting-system/contracts/VotingSystem.sol",
  "compiler": {
    "name": "solc",
    "version": "0.8.21+commit.d9974bed.Emscripten.clang"
  },
  "schemaVersion": "3.4.16",
  "updatedAt": "2025-05-30T08:04:13.129Z",
  "devdoc": {
    "kind": "dev",
    "methods": {},
    "version": 1
  },
  "userdoc": {
    "kind": "user",
    "methods": {},
    "version": 1
  }
}